:020000040800F2
:10000000A0070020354D0008194D00081B4D0008C1
:100010001F4D0008234D0008274D00080000000078
:100020000000000000000000000000002B4D000850
:100030002D4D0008000000002F4D0008314D000834
:100040004F4D00084F4D00084F4D00084F4D000820
:100050004F4D00084F4D00084F4D00084F4D000810
:100060004F4D00084F4D00084F4D00084F4D000800
:100070004F4D00084F4D00084F4D00084F4D0008F0
:100080004F4D00084F4D00084F4D00084F4D0008E0
:100090004F4D00084F4D00084F4D00084F4D0008D0
:1000A0004F4D00084F4D00084F4D00084F4D0008C0
:1000B0004F4D0008812C00084F4D00084F4D00089F
:1000C0004F4D00084F4D00084F4D00084F4D0008A0
:1000D0004F4D0008E52100084F4D00084F4D000826
:1000E0004F4D00084F4D00084F4D0008DFF80CD071
:1000F00005F070FA00480047DB4A0008A00700201E
:100100000CB50020019000906C48006840F48030ED
:100110006A49086000BF6948006800F40030009038
:100120000198401C0190009818B90198B0F5A06F93
:10013000F1D16248006800F4003010B10120009055
:1001400001E0002000900098012843D15C4800683D
:1001500040F010005A4908600846006820F003008B
:1001600008600846006840F0020008605348406894
:10017000524948600846406848600846406840F474
:10018000806048600846406820F47C10486008465B
:10019000406840F4E81048600846006840F080700D
:1001A000086000BF4548006800F000700028F9D0E2
:1001B0004248406820F003004049486008464068D3
:1001C00040F00200486000BF3C48406800F00C006E
:1001D0000828F9D10CBD10B5FFF792FF10BD10B57E
:1001E0003648006840F0010034490860084640681D
:1001F000344908403149486008460068324908409F
:100200002E4908600846006820F4802008600846EF
:10021000406820F4FE0048604FF41F008860FFF73C
:10022000DAFF4FF000602949086010BD10B50021C9
:1002300000200022214B5B6803F00C0121B104294E
:1002400006D0082928D107E0214B224C236027E063
:100250001F4B204C236023E0184B5B6803F47010A5
:10026000164B5B6803F48032022303EB904022B903
:10027000194B4343174C23600DE0104B5B6803F4AC
:10028000003323B1144B4343124C236003E0104B63
:100290004343104C236003E00D4B0E4C236000BF22
:1002A00000BF064B5B68C3F303130C4CE15C094BC6
:1002B0001B68CB40074C236010BD000000100240BB
:1002C000002002400000FFF8FFFFF6FE08ED00E00E
:1002D00000127A000000002000093D000400002008
:1002E00010B504466FF0040002F043FDE11704EB83
:1002F0005171C1F3C701144A11701046007800EB28
:100300004001C1EBC0104FF6FF7101EAC0000F4978
:10031000088010BD002109E0002201E0531C9AB2C0
:1003200040F6E4439A42F9DB4B1C99B28142F3DB7D
:100330007047002105E0002200E0521C0A2AFCD38D
:10034000491C8142F7D3704714000020160000209A
:1003500070B505460C4600F088F93C2000F02CFBF7
:1003600000F070FA284600F027FB00F06BFA2046F8
:1003700000F022FB00F066FA00F0AFF970BD2DE945
:10038000F04107460C46154600F06FF93C2000F09E
:1003900013FB00F057FA384600F00EFB00F052FA5B
:1003A00000F063F93D2000F007FB00F04BFA002657
:1003B00006E0012000F05CFB2070641C701CC6B2DB
:1003C000681EB042F5DC002000F052FB207000F007
:1003D00084F9BDE8F081F0B503460C460021012008
:1003E00019E05C4D35F81060451E5A4F27F815602E
:1003F00007F1160535F81070451E564E163626F8CC
:10040000157006F1160535F81070451E163626F8DB
:100410001570451CE8B20A28E3DB4E4D6B822C8533
:10042000EA870021002005E04A4D35F910502944A3
:10043000451CE8B20A28F7DB0A2591FBF5F52DB239
:10044000444EB5820021002006E0424D163535F9B4
:1004500010502944451CE8B20A28F6DB0A2591FB16
:10046000F5F52EB23B4D6E850021002006E0394D9A
:100470002C3535F910502944451CE8B20A28F6DB22
:100480000A2591FBF5F52EB2324DA5F84060F0BD7E
:100490002DE9FC4104460D46164600208DF8050066
:1004A0008DF804008DF803008DF802008DF801002E
:1004B0008DF80000062269460320FFF760FF9DF8D3
:1004C00003309DF8027043EA07231AB29DF8053005
:1004D0009DF8047043EA072319B29DF801309DF896
:1004E000007043EA072318B2FFF775FF1948808AA6
:1004F00020801848408D28801648B0F84000308091
:10050000BDE8FC813EB504466A4601A902A8FFF792
:10051000BFFFBDF9080004F06FFE0F4908602060BE
:10052000BDF9040004F068FE0C4908606060BDF984
:10053000000004F061FE0A490860A0603EBD10B5ED
:1005400000210220FFF704FFE0210120FFF700FF58
:1005500010BD00002C010020180000201C0000200D
:100560002000002008B5C020ADF8000003208DF861
:10057000020010208DF803006946F84802F078FC6C
:100580004021F64802F021FD8021F44802F01DFDD3
:1005900008BD08B54FF44060ADF8000003208DF8A9
:1005A000020010208DF803006946EC4802F060FC60
:1005B0004FF48061E94802F008FD4FF40061E7481C
:1005C00002F003FD08BD08B58020ADF8000003204F
:1005D0008DF8020010208DF803006946DF4802F014
:1005E00047FC08BD08B54FF40060ADF800000320DB
:1005F0008DF8020010208DF803006946D74802F0FC
:1006000037FC08BD08B58020ADF8000048208DF803
:1006100003006946D14802F02BFC08BD08B54FF431
:100620000060ADF8000048208DF803006946CB4813
:1006300002F01EFC08BD10B5FFF7C5FF8021C748BA
:1006400002F0C3FC4021C54802F0BFFC0520FFF7C3
:1006500070FE8021C14802F0BAFC0620FFF769FE57
:100660004021BE4802F0B3FC10BD10B5FFF7BAFF41
:100670004FF40061B94802F0A8FC4FF48061B7481C
:1006800002F0A3FC0520FFF754FE4FF40061B348CD
:1006900002F09DFC0620FFF74CFE4FF48061AF484E
:1006A00002F095FC10BD10B5FFF78DFF4021AB485F
:1006B00002F08DFC8021A94802F089FC4021A74866
:1006C00002F083FC0620FFF734FE8021A34802F0ED
:1006D0007CFC0620FFF72DFE10BD10B5FFF782FF52
:1006E0004FF480619D4802F072FC4FF400619B481A
:1006F00002F06DFC4FF48061984802F066FC062021
:10070000FFF717FE4FF40061944802F05EFC0620EC
:10071000FFF70FFE10BD10B54021904802F057FCC6
:10072000FFF751FF80218D4802F051FC0220FFF7B6
:1007300000FE4021894802F048FC0520FFF7F9FD42
:100740004021864802F043FC10BD10B54FF4806193
:10075000824802F03CFCFFF745FF4FF400617F4800
:1007600002F035FC0220FFF7E4FD4FF480617B4886
:1007700002F02BFC0520FFF7DCFD4FF48061774889
:1007800002F025FC10BD10B54021744802F01FFC9A
:10079000FFF719FF8021714802F017FC0220FFF7D4
:1007A000C8FD40216D4802F010FC0520FFF7C1FD97
:1007B00040216A4802F00BFC10BD10B54FF4806177
:1007C000664802F004FCFFF70DFF4FF40061634838
:1007D00002F0FBFB0220FFF7ACFD4FF480615F48A5
:1007E00002F0F3FB0520FFF7A4FD4FF480615B48A6
:1007F00002F0EDFB10BD10B50024FFF703FF8021D0
:10080000564802F0E2FB0120FFF793FD40215348D8
:1008100002F0DBFB0120FFF78CFD07E0601CC4B297
:10082000FA2C03DDFFF73FFF012010BD80214B486C
:1008300002F0B1FB0028F1D14021484802F0C7FB8B
:100840000020F2E710B50024FFF7E8FE4FF4006146
:10085000424802F0BAFB0120FFF76BFD4FF48061C4
:100860003E4802F0B2FB0120FFF763FD07E0601C89
:10087000C4B2FA2C03DDFFF730FF012010BD4FF4A6
:100880000061364802F087FB0028F0D14FF4806108
:10089000324802F09CFB0020F0E770B50024802174
:1008A0002E4802F092FB40212C4802F090FB0220DF
:1008B000FFF73FFDFFF7A6FE002516E04021274881
:1008C00002F083FB0220FFF734FD6006040E0220D5
:1008D000FFF72FFD44F001044021204802F077FB90
:1008E0000220FFF726FD681CC5B2082DE6DBFFF7E6
:1008F0006AFE204670BD70B500244FF400611748B1
:1009000002F063FB4FF48061144802F060FB0220A8
:10091000FFF70FFDFFF782FE002518E04FF480611E
:100920000E4802F052FB0220FFF703FD6006040EA2
:100930000220FFF7FEFC44F001044FF480610748F9
:1009400002F045FB0220FFF7F4FC681CC5B2082D3D
:10095000E4DBFFF747FE204670BD0000000C0140BD
:1009600070B50446FFF72FFE4021584802F02FFBD8
:1009700000251EE004F08000002804DD802153489B
:1009800002F023FB03E08021504802F020FB6006C8
:10099000040E40214D4802F018FB0220FFF7C9FC6D
:1009A00040214A4802F013FB0220FFF7C2FC681CFA
:1009B000C5B2082DDEDB70BD70B50446FFF712FE30
:1009C0004FF48061414802F002FB002522E004F070
:1009D0008000002805DD4FF400613C4802F0F5FA84
:1009E00004E04FF40061394802F0F1FA6006040EA9
:1009F0004FF48061354802F0E8FA0220FFF799FCD5
:100A00004FF48061314802F0E2FA0220FFF791FCD6
:100A1000681CC5B2082DDADB70BD70B5054600262E
:100A20000024FFF7EFFD00BF18E04021274802F047
:100A3000CEFA0220FFF77DFC4021244802F0C5FADF
:100A40006006040E8021214802F0A5FA08B1601C5E
:100A5000C4B20120FFF76DFC701CC6B2082EE4DBA7
:100A600015B9FFF790FE01E0FFF755FE204670BD77
:100A700070B5054600260024FFF7D0FD00BF1BE03F
:100A80004FF48061114802F0A2FA0220FFF751FCF6
:100A90004FF480610D4802F098FA6006040E4FF49E
:100AA00000610A4802F077FA08B1601CC4B2012064
:100AB000FFF73FFC701CC6B2082EE1DB15B9FFF74B
:100AC0007CFE01E0FFF741FE204670BD000C0140B6
:100AD0002DE9F04704464FF07C51204604F094F98C
:100AE000814625462E46FE48A0EB66063546294639
:100AF000484604F089F98246294604F085F9804683
:100B00004FF07F5104F07DF90746294604F07CF947
:100B100005462846BDE8F08710B500F0CCFFFFF78A
:100B20000EFD3220FFF7F6FB00F0C5FFFFF707FDD3
:100B30003220FFF7EFFB4FF07E50EA4908600020BB
:100B4000E9490860E9490860E9490860E94908603D
:100B5000E9490860E949086010BD2DE9F04186B017
:100B600005460DF1160005A9031F04AACDE90010E2
:100B7000891F03A801F02BF9002429E0032C1BDABC
:100B8000DF4951F82400DF4904F03EF9074603A984
:100B900031F9140004F030FB8046DB4904F034F9ED
:100BA0000646394604F0D8F845F8240055F82400E4
:100BB000D34941F824000AE003A931F9140004F0F4
:100BC0001BFB0646D14904F051F945F82400641C8A
:100BD000062CD3DB05F11800FFF794FC06B0BDE846
:100BE000F0812DE9F05F054600270024C84938460A
:100BF00004F00AF98146C749204604F005F9824607
:100C0000C549284604F000F98346514604F0A4F88B
:100C10008046494604F0F2F8064627463446BDE8C9
:100C2000F09F0FB5ABB000201A90AE480168006885
:100C300004F0EAF81990AC480168AA48006804F08A
:100C4000E3F81890A9480168A648006804F0DCF8A9
:100C50001790A7480168A348006804F0D5F81690DB
:100C6000A1480168006804F0CFF815909F4801681A
:100C70009D48006804F0C8F814909D4801689A489F
:100C8000006804F0C1F8139098480168006804F007
:100C9000BBF81290964801689448006804F0B4F8D4
:100CA000119093480168006804F0AEF810909B48DA
:100CB00029903199084604F0A7F80E90309908461B
:100CC00004F0A2F80C902E99084604F09DF80B90C1
:100CD0000C9904F041F80D900E9904F03DF80F9036
:100CE000FFF7F6FE2A902A992E9804F08DF82E90A0
:100CF0002A99309804F088F830902A99319804F0B5
:100D000083F831903499084604F07EF80E903399B8
:100D1000084604F079F80C903299084604F074F80B
:100D20000B900C9904F018F80D900E9904F014F83B
:100D30000F90FFF7CDFE2A902A99329804F064F8BC
:100D400032902A99339804F05FF833902A993498B6
:100D500004F05AF834901799139803F0FDFF0D90A2
:100D60004FF08040349904F04FF80C900D9904F046
:100D70004BF80F901699149804F040F80B904FF030
:100D80008040339904F040F80A900B9904F03CF845
:100D90000D904FF07C50129904F030F809901099A2
:100DA00004F02CF80B904FF08040329904F02CF8AE
:100DB0000A900B9904F028F80C900D9903F0CCFFE1
:100DC0000E900F9903F0C8FF28901899119804F01D
:100DD00015F80D904FF08040349904F015F80C9000
:100DE0000D9904F011F80F904FF07C50159904F014
:100DF00005F80990109904F001F80B904FF080402D
:100E0000339904F001F80A900B9903F0FDFF0D905F
:100E10001699149803F0A0FF0B904FF08040329980
:100E200003F0F2FF0A900B9903F0EEFF0C900D997E
:100E300003F092FF0E900F9903F08EFF27904FF072
:100E40007C50159903F0DAFF0B90129903F0D6FF4E
:100E50000D904FF08040349903F0D6FF0C900D991F
:100E600003F0D2FF0F901899119803F075FF0B90C3
:100E70004FF08040339903F0C7FF0A900B9903F0BD
:100E8000C3FF0D901799139803F0B8FF0B904FF024
:100E90008040329903F0B8FF0A900B9903F0B4FF39
:100EA0000C900D9903F058FF0E900F9903F054FF2A
:100EB00026902799084603F0A7FF0A90289908462C
:100EC00003F0A2FF09900A9903F046FF0B9004F08B
:100ED000FEF9CDE90C0104F051FFCDE90E011FE050
:100EE000DF59375F380000203C0000204000002020
:100EF000440000202C00002030000020340000209E
:100F0000700100206666263F3333B33E333383419E
:100F1000A725593E6808833F4FE2403E6F12833A4F
:100F200004F0FCF92590269824901799139803F063
:100F300065FF4FF080410F9003F066FF23901199F9
:100F4000189803F009FF4FF080410F9003F05CFF09
:100F500022901599199803F051FF0E90129903F001
:100F60004DFF0F90109903F0F7FE219017991398F9
:100F700003F044FF08904FF08040249903F044FFB1
:100F80000790089903F040FF099004F0A0F9CDE91B
:100F90000C01109804F09BF9CDE90401129804F0BB
:100FA00096F90022FE4BCDE9000104F041F8CDE9AD
:100FB0000201DDE9042304F038F8CDE908014FF01F
:100FC0008040259903F020FF059004F080F9CDE9D9
:100FD0000601DDE9082304F02EF8CDE90A01DDE978
:100FE0000C2303F081FFCDE90E0104F097F9209066
:100FF0001199189803F0B0FE0D904FF0804024999D
:1010000003F002FF0C900D9903F0FEFE0F9016996D
:10101000149803F0F3FE0D904FF08040259903F0F3
:10102000F3FE0C900D9903F0EFFE0E900F9903F074
:1010300093FE1F90129804F04AF9CDE90401159827
:1010400004F045F90022D64BCDE9000103F0F0FF92
:10105000CDE90201DDE9042303F0E7FFCDE9080152
:101060004FF08040249903F0CFFE059004F02FF953
:10107000CDE90601DDE9082303F0DDFFCDE90C0130
:101080001399179803F068FE08904FF08040259957
:1010900003F0BAFE0790089903F0B6FE099004F039
:1010A00016F9CDE90A01DDE90C2303F01DFFCDE9B6
:1010B0000E0104F033F91E901F99349803F0A4FE3A
:1010C0000D901E99339803F09FFE0C900D9903F03C
:1010D00095FE0F902299319803F096FE0D9021997C
:1010E000309803F091FE0C900D9903F087FE0E905E
:1010F0000F9903F031FE1D901E99329803F084FE83
:101100000D902099349803F07FFE0C900D9903F018
:1011100075FE0F9021992E9803F076FE0D9023997D
:10112000319803F071FE0C900D9903F067FE0E905C
:101130000F9903F011FE1C902099339803F064FE80
:101140000D901F99329803F05FFE0C900D9903F0FB
:1011500055FE0F902399309803F056FE0D9022997A
:101160002E9803F051FE0C900D9903F047FE0E905F
:101170000F9903F0F1FD1B9000211D9804F0EAF88F
:1011800069D000211C9804F0E5F864D000211B9878
:1011900004F0E0F85FD029991D9803F035FE0F9018
:1011A000804801680F9803F0D7FD7E4908602999AF
:1011B0001C9803F029FE0F907B4801680F9803F0FC
:1011C000CBFD7949086029991B9803F01DFE0F900B
:1011D000764801680F9803F0BFFD744908607148B4
:1011E00001684FF07D5003F00FFE0F9070481D997D
:1011F00003F00AFE0D902B9903F0AEFD0E900F99AF
:1012000003F0AAFD2B90684801684FF07D5003F071
:10121000FBFD0F9066481C9903F0F6FD0D902C998C
:1012200003F09AFD0E900F9903F096FD2C905F4805
:1012300001684FF07D5003F0E7FD0F905C481B996B
:1012400003F0E2FD0D902D9903F086FD0E900F99AD
:1012500003F082FD2D904FF08040299903F0D4FDDA
:101260000B902D9903F0D0FD0D904FF080402999FF
:1012700003F0CAFD0B902D9903F0C6FD0C900D995B
:1012800003F0C2FD0F904FF08040299903F0BCFDA0
:1012900009902C9903F0B8FD0B904FF080402999EC
:1012A00003F0B2FD09902C9903F0AEFD0A900B9962
:1012B00003F0AAFD0D904FF08040299903F0A4FDA2
:1012C00009902B9903F0A0FD0B904FF080402999D5
:1012D00003F09AFD09902B9903F096FD0A900B9963
:1012E00003F092FD0C900D9903F036FD0E900F99CE
:1012F00003F032FD1A902F482D99006803F084FD09
:101300000C902D482C99006803F07EFD0A902B4824
:10131000006880F0004008902B9903F075FD09905B
:101320000A9903F06BFD0B900C9903F067FD0D908B
:10133000299903F069FD4FF082410F901A9803F04C
:1013400095FD4FF07E510C9003F05BFD0D901C4815
:1013500001680D9803F058FD0E900F9903F0FCFC06
:101360001749086013482C99006803F04DFD0C9054
:1013700011482D99006803F047FD0A901048016854
:101380002B9803F041FD09900A9903F0E5FC0B90BE
:101390000C9903F033FD0D90299903F035FD11E010
:1013A0000000E03F2C00002030000020340000202E
:1013B0000000204244000020400000203C000020AB
:1013C000380000204FF082410F901A9803F04EFD34
:1013D0004FF07E510C9003F014FD0D90FE48016813
:1013E0000D9803F011FD0E900F9903F0B5FCFA492A
:1013F0000860FA4801682B9803F006FD0C90F64847
:101400002D99006803F000FD0A90F5482C990068BA
:1014100003F0FAFC09900A9903F0F0FC0B900C9988
:1014200003F09AFC0D90299903F0EEFC4FF08241F5
:101430000F901A9803F01AFD4FF07E510C9003F0B4
:10144000E0FC0D90E74801680D9803F0DDFC0E907C
:101450000F9903F081FCE3490860084601682B9866
:1014600003F0D2FC0C90DC482C99006803F0CCFC13
:101470000A90DB482D99006803F0C6FC09900A9990
:1014800003F06AFC0B900C9903F0B8FC0D902999BD
:1014900003F0BAFC4FF082410F901A9803F0E6FC7B
:1014A0004FF07E510C9003F0ACFC0D90CB480168DE
:1014B0000D9803F0A9FC0E900F9903F04DFCC7495D
:1014C000086008460168006803F09EFC0E90C5485D
:1014D0000168006803F098FC0C90BF480168006840
:1014E00003F092FC0A90BE480168006803F08CFC8F
:1014F00009900A9903F030FC0B900C9903F02CFC36
:101500000D900E9903F028FC0F90FFF7E1FA2A9056
:10151000B3482A99006803F077FCB1490860AE48E7
:101520002A99006803F070FCAB490860AD482A991D
:10153000006803F069FCAB490860A8482A99006874
:1015400003F062FCA54908602FB000BD2DE9F04111
:1015500086B00446A448FFF700FBA3494869A349A5
:1015600003F052FC8046A24903F080FC05469E49E8
:1015700008699E4903F048FC80469D4903F076FCCB
:1015800006469949C868994903F03EFC8046984947
:1015900003F06CFC07469448006A9349C969924A73
:1015A0009269914B9B68CDE90132CDE903108E48D9
:1015B000406800908C482A46314603683846FFF759
:1015C00030FB874800682060834800686060854879
:1015D0000068A06081480068E06006B0BDE8F08166
:1015E00001B59EB000201890179016901590149099
:1015F00019A8FFF7ABFF7C48806802907A488068A2
:101600000190029903F000FC049077484068029032
:10161000754840680190029903F0F6FB0390049925
:1016200003F09AFB059003F052FECDE9060104F0A9
:10163000A5FBCDE90A016C480068079003F047FE5E
:10164000CDE90801DDE90A2303F067FDCDE90C01CE
:1016500004F0C2F90022674BCDE90E0103F0EBFC68
:101660004FF0C042644BCDE9100103F056FDCDE9C7
:10167000120103F053FE18905B48806802905A48AC
:1016800080680190029903F0BFFB049056480068FF
:101690000290554800680190029903F0B5FB039051
:1016A000049903F059FB059003F011FECDE9060102
:1016B00004F064FBCDE90A014B484068079003F051
:1016C00006FECDE90801DDE90A2303F026FDCDE998
:1016D0000C0104F081F90022464BCDE90E0103F024
:1016E000AAFC4FF0C042444BCDE9100103F015FDB8
:1016F000CDE9120103F012FE1890199801460790E7
:101700004FF0804003F080FB08901B980146079043
:10171000089803F079FB0A901A98014607904FF059
:10172000404003F071FB08901C9801460790089810
:1017300003F06AFB09900A9903F00EFB0B9003F08B
:10174000C6FDCDE90C0104F009F80022294BCDE9D2
:101750000E0103F070FC4FF0C042274BCDE91001A1
:1017600003F0DBFCCDE9120103F0D8FD1E9988607F
:101770001B98014604904FF0804003F045FB059014
:101780001B9801460490059803F03EFB07901A98B9
:10179000014604904FF0404003F036FB05901A9844
:1017A00001460490059803F02FFB0690079903F07B
:1017B00025FB4FF07E51089003F0CEFA099003F01C
:1017C00086FDCDE90C011998014605904FF0804047
:1017D00003F01AFB069011E03C00002044000020BA
:1017E000380000204000002030030020DB0F49407B
:1017F0000000344300806640FB2109401A980146EE
:101800000590069803F000FB08901B980146059090
:101810004FF0804003F0F8FA06901C9801460590BE
:10182000069803F0F1FA0790089903F095FA0990E9
:1018300003F04DFDCDE90A01DDE90C2304F0DEF9EA
:1018400000226E4BCDE90E0103F0F5FB4FF0C042D4
:101850006B4BCDE9100103F060FCCDE9120103F000
:101860005DFD1E994860674840696749129003F022
:10187000FDFA13901E98006801461290139803F029
:101880006BFA1E990860179803F021FD5F4A604BC0
:10189000CDE90C0103F0CFFBCDE9100159480069F7
:1018A000059003F014FD594A594BCDE9060103F0A8
:1018B000C2FBCDE90A011E988068079003F007FD7E
:1018C000CDE90801DDE90A2303F0AFFB514A524B91
:1018D000CDE90C0103F0AFFBCDE90E01DDE91023EA
:1018E00003F002FBCDE9120103F018FD1E99886098
:1018F000189803F0ECFC454A454BCDE90C0103F088
:101900009AFBCDE910013F48C068059003F0DFFC69
:101910003E4A3F4BCDE9060103F08DFBCDE90A01BC
:101920001E984068079003F0D2FCCDE90801DDE97C
:101930000A2303F07AFB374A374BCDE90C0103F059
:101940007AFBCDE90E01DDE9102303F0CDFACDE9F4
:10195000120103F0E3FC1E9948601E9840682F496D
:10196000139003F001FD06D31E9840682C49139094
:1019700003F0F0FC21D21E9880680021139003F040
:10198000F3FC08D21E98806801461390254803F0A6
:1019900035FA1E9988601E9880680021139003F024
:1019A000D9FC0AD21E988068014613901D4803F0A6
:1019B000D3F980F000411E9881601E980068194993
:1019C000139003F0D1FC08D21E98006816491390BA
:1019D00003F014FA1E9908600EE01E98006813497F
:1019E000139003F0B7FC07D21E9800680E491390BD
:1019F00003F0B2F91E9908601FB000BD0080664078
:101A0000FB2109403003002000004843FCA9F1D22B
:101A10004D62603F5C8FC2F5285CEF3F0000B4422E
:101A20000000B4C2000034430000B443000034C3DB
:101A300070B505460C46FEF7FEFDD020FEF790FF80
:101A4000FEF7D9FE2846FEF78BFFFEF7D4FE2046B0
:101A5000FEF786FFFEF7CFFEFEF725FE70BD2DE9EF
:101A6000F04107460C461546FEF7E5FDD020FEF78F
:101A700077FFFEF7C0FE3846FEF772FFFEF7BBFEAB
:101A8000FEF7D9FDD120FEF76BFFFEF7B4FE00266E
:101A900006E00120FEF7C1FF2070641C701CC6B276
:101AA000681EB042F5DC0020FEF7B7FF2070FEF79D
:101AB000FAFDBDE8F08110B500216B20FFF7B8FFFB
:101AC00007211920FFF7B4FF06211A20FFF7B0FF06
:101AD00001211C20FFF7ACFF18211B20FFF7A8FFF6
:101AE00002213720FFF7A4FF00216A20FFF7A0FFA3
:101AF00010BD1CB50446062269463B20FFF7AFFF28
:101B00009DF801009DF8001040EA012000B22080FD
:101B10009DF803009DF8021040EA012000B26080A9
:101B20009DF805009DF8041040EA012000B2A08055
:101B30001CBD1CB50446062269464320FFF78FFFF3
:101B40009DF801009DF8001040EA012000B22080BD
:101B50009DF803009DF8021040EA012000B2608069
:101B60009DF805009DF8041040EA012000B2A08015
:101B70001CBD38B50446022269464120FFF76FFFBD
:101B80009DF801009DF8001040EA012000B220807D
:101B900038BD2DE9F84F8246022269464120FFF701
:101BA0005EFF9DF801009DF8001040EA01200FFA49
:101BB00080FB43F29030584403F02CFB8046002217
:101BC000E84B03F0AAFA06460022E74B03F02DFA91
:101BD000044603F05DFB00B2AAF80000BDE8F88FF0
:101BE0002DE9F04304460D46DDE907670021012099
:101BF00041E0DFF878C33CF81080A0F1010CDFF879
:101C00006C9329F81C8009F1160C3CF81090A0F197
:101C1000010CDFF8588308F1160828F81C9008F129
:101C2000160C3CF81090A0F1010C08F1160828F8E9
:101C30001C9008F1160C3CF81090A0F1010C08F172
:101C4000160828F81C9008F1160C3CF81090A0F12A
:101C5000010C08F1160828F81C9008F1160C3CF845
:101C60001090A0F1010C08F1160828F81C9000F162
:101C7000010C0CF0FF000A28BBDBDFF8F0C2ACF867
:101C80001240ACF82850ACF83E20ACF85430ACF818
:101C90006A60ACF880700021002008E0DFF8CCC258
:101CA0003CF910C0614400F1010C0CF0FF000A285F
:101CB000F4DB4FF00A0C91FBFCFC0FFA8CFCDFF814
:101CC000AC82A8F814C0002100200AE0DFF89CC212
:101CD0000CF1160C3CF910C0614400F1010C0CF041
:101CE000FF000A28F2DB4FF00A0C91FBFCFC0FFA14
:101CF0008CF8DFF878C2ACF82A80002100200AE0D6
:101D0000DFF868C20CF12C0C3CF910C0614400F102
:101D1000010C0CF0FF000A28F2DB4FF00A0C91FBDB
:101D2000FCFC0FFA8CF8DFF844C2ACF840800021CC
:101D300000200AE0DFF834C20CF1420C3CF910C07C
:101D4000614400F1010C0CF0FF000A28F2DB4FF0B7
:101D50000A0C91FBFCFC0FFA8CF8DFF810C2ACF80F
:101D60005680002100200AE0DFF800C20CF1580C78
:101D70003CF910C0614400F1010C0CF0FF000A288E
:101D8000F2DB4FF00A0C91FBFCFC0FFA8CF8DFF849
:101D9000DCC1ACF86C80002100200AE0DFF8CCC187
:101DA0000CF16E0C3CF910C0614400F1010C0CF018
:101DB000FF000A28F2DB4FF00A0C91FBFCFC0FFA43
:101DC0008CF8DFF8A8C1ACF88280BDE8F0832DE97B
:101DD000FF4704460D4616461F46DDE90C8902A85A
:101DE000FFF787FEBDF8080061490880BDF80A00CA
:101DF00060490880BDF80C005F4908806846FFF71D
:101E000098FEBDF800005D490880BDF802005C49FD
:101E10000880BDF804005B490880BDF808005A49F5
:101E20000988401A00B22080BDF80A005749098885
:101E3000401A00B22880BDF80C0055490988401AA4
:101E400000B23080BDF8000052490988401A00B243
:101E50003880BDF8020050490988401A00B2A8F83D
:101E60000000BDF804004D490988401A00B2A9F8E5
:101E70000000BDE8FF872DE9F04786B04FF000086D
:101E8000C146C24600250026002700203E490880A2
:101E90003E4908803E4908803E4908803E49088006
:101EA0003E49088000240FE06420FEF742FA0DF15D
:101EB000160005A9031F04AACDE90010891F03A875
:101EC000FFF785FF601CC4B2322CEDDB002422E05A
:101ED0004FF44870FEF72DFA0DF1160005A9031F07
:101EE00004AACDE90010891F03A8FFF770FFBDF910
:101EF0000C000544BDF90E000644BDF9100007446E
:101F0000BDF912008044BDF914008144BDF91600EA
:101F10008244601CC4B2642CDADB642098FBF0F0CD
:101F200000B21C490880642099FBF0F000B21A4905
:101F3000088064209AFBF0F000B218490880642001
:101F400095FBF0F596FBF0F697FBF0F728B20E49FB
:101F5000088030B20D49088038B20D49088006B0BB
:101F6000BDE8F0870080714000002A408A0100200F
:101F70005C0000205E000020600000206200002065
:101F80006400002066000020560000205800002059
:101F90005A00002050000020520000205400002071
:101FA00008B50121084601F02CFA0121042001F0B6
:101FB0001BFA0F20ADF8000018208DF80300032055
:101FC0008DF802006946374800F052FF08BD2DE940
:101FD000F04188B004460D4616461F46DDF83880AD
:101FE000ADF818404720ADF814000020ADF81A00F5
:101FF000ADF8160005A94FF0804001F02DFB6020E0
:10200000ADF804000120ADF80600ADF80A5000203C
:10201000ADF80C0001A94FF0804001F05AFB0821F7
:10202000C80601F0A5FF0120ADF80600ADF80A6072
:1020300001A9800701F08FFB0821C80601F0A1FF6C
:102040000120ADF80600ADF80A7001A9800701F083
:10205000CFFB0821C80601F0A1FF0120ADF8060062
:10206000ADF80A8001A9800701F00DFC0821C8061F
:1020700001F09DFF0121880701F04AFF0121880737
:1020800001F046FE08B0BDE8F08108B5FFF788FF13
:102090000020034602460146009046F2A810FFF7D2
:1020A00096FF08BD0008014000B587B0FEF797F81D
:1020B0000121042001F098F90121082001F094F990
:1020C0000121880301F090F90121084601F08CF903
:1020D0006420FEF71FF94FF40070ADF818000320DC
:1020E0008DF81A0018208DF81B0006A94F4800F043
:1020F000BFFE4FF48060ADF8180004208DF81B007F
:1021000006A94A4800F0B4FE6420FEF703F94FF434
:10211000C06000F0DFFD25208DF8140001208DF84F
:10212000150000208DF8160001208DF8170005A875
:1021300000F0D5FD6420FEF7EDF84FF4E13001909A
:102140000020ADF80800ADF80A00ADF80C000C2036
:10215000ADF80E000020ADF8100001A9344802F0DF
:10216000F8F80121324802F080F9012240F22551AD
:102170002F4802F086F940212D4802F05EFA07B0A0
:1021800000BD70B504460D46E1B2294802F0DAF907
:1021900000BF8021264802F043FA0028F9D02046EB
:1021A00070BD10B504462146214802F0CBF900BFAE
:1021B00080211F4802F034FA0028F9D010BD10B574
:1021C00004460BE014F8011B194802F0BBF900BFEC
:1021D0008021174802F024FA0028F9D0207800283E
:1021E000F0D110BD10B540F22551114802F02EFA81
:1021F000D0B1002240F225510D4802F042F90C48BE
:1022000002F0A4F904462146094802F09BF900BFF8
:102210008021074802F004FA0028F9D0012240F298
:102220002551034802F02DF910BD000000080140BF
:102230000038014030B5039C002545608560C560CD
:102240000561016042618361C461FE4DC56230BDBC
:102250002DE9F84F04468A461646994626605146AF
:10226000206802F0CBFD6060F749606802F0CCFDA9
:102270000746E16802F070FDE060E16AE06803F0A3
:1022800073F802D2E06AE0600BE0E06A80F0004799
:102290003846E16803F068F803D2E06A80F0004055
:1022A000E06089F000402061606803F010F821F0E0
:1022B000004107460022134603F01CF826D261684D
:1022C000606902F0A1FD2062E168A06902F09CFD56
:1022D00060622169E06902F097FDA0622169E0690E
:1022E00002F092FD0090E168A06902F08DFD804649
:1022F0006168606902F088FD8346414602F02CFD6A
:102300000746009902F028FD054601E0CF48056820
:102310006068A060CD4805602846BDE8F88FC162BE
:1023200070472DE9F04F85B004468946924600205B
:102330000490504602F0CBFF0022C54BCDE90001CE
:1023400002F079FE07468846484602F0C0FF3A464A
:102350004346CDE9020102F068FE054602F0DEFFC9
:102360006060D4E9010102F049FD0746E16902F02D
:102370004BFD05466168606902F046FD0646294648
:1023800002F0EAFC83466068A060584605B0BDE8EC
:10239000F08F38B504462179E27801EB022002F093
:1023A0002BFF0546AB4902F061FDAB490860A179FE
:1023B000627901EB022002F01FFF0546A54902F0F9
:1023C00055FDA6490860217AE27901EB022002F06E
:1023D00013FF05469F4902F049FDA1490860A17A13
:1023E000627A01EB022002F007FF0546994902F0EC
:1023F0003DFD9C490860217BE27A01EB022002F05E
:10240000FBFE0546934902F031FD97490860A17B28
:10241000627B01EB022002F0EFFE05468D4902F0DF
:1024200025FD92490860217CE27B01EB022002F04D
:10243000E3FE0546874902F019FD8D490860A17C3D
:10244000627C01EB022002F0D7FE0546814902F0D2
:102450000DFD88490860217DE27C01EB022002F03D
:10246000CBFE05467B4902F001FD83490860607E92
:1024700002F0CBFE0546774902F0F8FC7F49086080
:10248000A07E02F0C2FE0546724902F0EFFC7C49D4
:102490000860E07E02F0B9FE05466E4902F0E6FCF7
:1024A00078490860207F02F0B0FE0546694902F0D5
:1024B000DDFC75490860607F02F0A7FE05466549AE
:1024C00002F0D4FC71490860A07F02F09EFE054630
:1024D000604902F0CBFC6E490860614800680090DA
:1024E0005E4803685C48002102686A48FFF7A2FE64
:1024F0005E48006800905C4803685A480021026802
:102500006548FFF797FE5C480068009059480368EB
:102510005748002102686148FFF78CFE5848006860
:1025200000905F4803685548002102685D48FFF746
:1025300081FE5548006800905B48036851480021BF
:1025400002685A48FFF776FE5148006800905848E4
:1025500003684E48002102685648FFF76BFE564953
:102560004C48FFF7DCFE54494B48FFF7D8FE53496F
:102570004A48FFF7D4FE38BD10B5044650492046FE
:1025800002F0F2FE01D24F4C07E04F49204602F024
:10259000E1FE01D24C4C00E000BF204602F04BFEB1
:1025A00010BD2DE9F05F07460C4616461D4647480C
:1025B000C368002237487968FFF74AFE444908603B
:1025C0004248036900223448B968FFF741FE414997
:1025D00008603E484369002230483968FFF738FEFA
:1025E0003D4908603948C268394801682D48FFF7FD
:1025F00098FE3749086035480269364801682B481B
:10260000FFF78FFE3349086030484269324801685D
:102610002848FFF786FE30490860A5F5967002F05D
:10262000EBFD83462B480168584602F0E7FB8246E3
:1026300027480168504602F0E1FB8146FFF79CFF06
:1026400080464BE00000C8426F12833BC000002070
:1026500000000C4000007A44740000207800002044
:102660007C00002084000020880000208C000020D6
:10267000900000209400002098000020A800002076
:10268000B00000209C000020A4000020B400002026
:10269000BC00002010020020400200207002002038
:1026A000AC000020A0020020A0000020D0020020EA
:1026B000B8000020000300200000C8410000A04135
:1026C00000401C45000016450020804430030020D7
:1026D000680000206C0000207000002002F08CFDDB
:1026E0002060A5F5967002F087FD834634480168A6
:1026F000584602F083FB824632480168504602F099
:102700002BFB8146FFF738FF804602F075FD6060C5
:10271000A5F5967002F070FD834629480168584679
:1027200002F01AFB824627480168504602F014FB6B
:102730008146FFF721FF804602F05EFDA060A5F50F
:10274000967002F059FD83461D480168584602F014
:1027500003FB82461B480168504602F04FFB81464E
:10276000FFF70AFF804602F047FDE0601649206847
:1027700002F07CFB804602F05EFD3060124960682A
:1027800002F074FB804602F056FD70600E49A068AE
:1027900002F06CFB804602F04EFDB0600A49E06832
:1027A00002F064FB804602F046FDF060B5F5806FF4
:1027B00004DC064820606060A060E060BDE8F09F37
:1027C0006C0000206800002000007A4300007F4475
:1027D00008B50121382000F007FE0420ADF8000004
:1027E00010208DF8030003208DF802006946184878
:1027F00000F03EFB1820ADF8000010208DF803001B
:1028000003208DF802006946124800F031FB4FF4B6
:102810008050ADF8000010208DF8030003208DF8E3
:10282000020069460C4800F023FB0421084800F030
:10283000CCFB1021074800F0C8FB0821054800F038
:10284000C4FB4FF48051044800F0BFFB08BD0000FA
:1028500000140140000C01400010014001B502E0ED
:102860000098401E009000980028F9D108BD00B5DE
:1028700087B00121192000F0B7FD0121880300F085
:10288000C0FD4FF46040ADF8040001208DF8060053
:1028900018208DF8070001A9D94800F0E9FA4FF493
:1028A0008050ADF8040001208DF8060010208DF84E
:1028B000070001A9D24800F0DBFA8020ADF804003F
:1028C00001208DF8060010208DF8070001A9CD48E1
:1028D00000F0CEFA4020ADF8040001208DF806008B
:1028E00048208DF8070001A9C64800F0C1FA4FF44E
:1028F0008051C34800F069FB0020ADF808004FF498
:102900008270ADF80A000020ADF80C00ADF80E00A2
:10291000ADF810004FF40070ADF812001020ADF8C3
:1029200014000020ADF816000720ADF8180002A929
:10293000B54801F0F5FE0121B34801F096FF07B05C
:1029400000BD10B5044600BF0221AF4802F011F8E7
:102950000028F9D02146AC4801F0B8FF00BF0121A2
:10296000A94802F006F80028F9D0A74801F0B0FF06
:10297000C0B210BD70B505460C468021A14800F0DC
:1029800026FB4FF480519E4800F021FB2846FFF7BC
:10299000D8FF06462046FFF7D4FF4FF480519848F1
:1029A00000F013FB304670BD70B504468021954899
:1029B00000F00DFB4FF48051914800F008FB2046D9
:1029C000FFF7BFFFFF20FFF7BCFF05464FF4805124
:1029D0008B4800F0FAFA284670BD2DE9F041074611
:1029E0000D4616468021874800F0F1FA4FF48051D9
:1029F000834800F0ECFA3846FFF7A3FF8046002436
:102A000005E0FF20FFF79DFF2855601CC4B2B442CB
:102A1000F7DB4FF480517A4800F0D7FA4046BDE822
:102A2000F0812DE9F04107460C4615468021754896
:102A300000F0CDFA4FF48051714800F0C8FA3846E2
:102A4000FFF77FFF8046002605E014F8010BFFF733
:102A500078FF701CC6B2AE42F7DB4FF48051684875
:102A600000F0B3FA4046BDE8F08110B5802165481A
:102A700000F0ADFA202265492A20FFF7D2FF01219C
:102A80002120FFF777FF01212220FFF773FF282184
:102A90002520FFF76FFF1F213120FFF76BFF0F216C
:102AA0002620FFF767FF0F212020FFF763FF80211B
:102AB000544800F08AFA10BD10B58021514800F04A
:102AC00086FA132252493020FFF7ABFF20224F49EC
:102AD0002A20FFF7A6FF01212120FFF74BFF01214C
:102AE0002220FFF747FF1A212420FFF743FF282168
:102AF0002520FFF73FFF0F212620FFF73BFF0E2188
:102B00002020FFF737FF80213E4800F05EFA4FF6A5
:102B1000FF70FFF7A3FE10BD1FB53EA103C9CDE9AD
:102B20000201052202A93020FFF77BFF052269463A
:102B30001020FFF752FF002406E01DF80400C22811
:102B400000D003E0601CC4B2052CF6DB00BF052CEE
:102B500002D1012004B010BD0020FBE770B505468E
:102B60008021284800F033FA12222946A020FFF7DE
:102B700058FF8021234800F028FA00BF4021214857
:102B800000F009FA0028F9D10720FFF70DFF0446ED
:102B900021462720FFF7EEFEFF21E120FFF7EAFEA6
:102BA00004F0200008B1202070BD0020FCE770B5C3
:102BB00005468021134800F008FA00BF4021114863
:102BC00000F0E9F90028F9D180210E4800F0FFF962
:102BD0000720FFF7E9FE044621462720FFF7CAFE3B
:102BE00004F0400050B11F2229466120FFF7F5FE96
:102BF000FF21E220FFF7BEFE402070BD0020FCE771
:102C0000000C01400010014000380040D7000020B7
:102C1000C4000020C2C2C2C2C20000001FB5012110
:102C2000022000F0EEFB4FF4C06000F053F81D20CE
:102C30008DF8000000208DF8010003208DF80200BF
:102C400001208DF80300684600F049F80A20ADF82D
:102C5000080041F61F40ADF804000020ADF80A005E
:102C6000ADF8060001A9164800F0F6FC012241214A
:102C7000134801F068F80121114801F049F81FBD1F
:102C800010B501210E4801F00CFBB8B101210C4830
:102C900001F018FB0B480088401C0A4908800A48CC
:102CA0000088401C0849088008480088401C0749E3
:102CB000088007480088401C0549088010BD0000B6
:102CC000000400400C0100200E0100201001002033
:102CD0001201002031490143314A1160704770B53B
:102CE000002100230F22C47804B32D4C246804F47F
:102CF000E064C4F5E064210AC1F10403CA404478E9
:102D000004FA03F18478144021430901254C067824
:102D1000A155047804F01F050124AC4005786D111D
:102D2000AD0005F1E025C5F8004109E0047804F0A4
:102D30001F050124AC401C4D0678761145F826404D
:102D400070BD1A4A0A400243154B1B1F1A60704798
:102D500039B1134A121D12680243114B1B1D1A6030
:102D600006E00F4A121D126882430D4B1B1D1A60AC
:102D70007047042808D14FF0E021096941F00401AF
:102D80004FF0E022116107E04FF0E021096921F0E6
:102D900004014FF0E0221161704700000000FA05C5
:102DA0000CED00E000E400E080E100E080FFFF1FA8
:102DB00010B50446CC48844208D10121042000F01B
:102DC0002DFB0021042000F029FB46E0C748844287
:102DD00008D10121082000F021FB0021082000F08B
:102DE0001DFB3AE0C248844208D10121102000F0C6
:102DF00015FB0021102000F011FB2EE0BD4884429D
:102E000008D10121202000F009FB0021202000F042
:102E100005FB22E0B848844208D10121402000F09F
:102E2000FDFA0021402000F0F9FA16E0B348844290
:102E300008D10121802000F0F1FA0021802000F06B
:102E4000EDFA0AE0AE48844207D10121801500F076
:102E5000E5FA0021A01500F0E1FA10BD10B501213E
:102E6000084600F0DBFA0021012000F0D7FA10BD7F
:102E70002DE9F04102460025002600200023002411
:102E8000002791F803C00CF00F0591F803C00CF077
:102E9000100CBCF1000F03D091F802C04CEA0505FC
:102EA00091F800C0BCF1000F31D0146800202BE075
:102EB0004FF0010C0CFA00F3B1F800C00CEA030665
:102EC0009E4220D183004FF00F0C0CFA03F7BC4355
:102ED00005FA03FC4CEA040491F803C0BCF1280F86
:102EE00006D14FF0010C0CFA00FCC2F814C00AE045
:102EF00091F803C0BCF1480F05D14FF0010C0CFA5A
:102F000000FCC2F810C0401C0828D1D31460B1F8EE
:102F100000C0BCF1FF0F34DD546800202EE000F14A
:102F2000080C4FF0010808FA0CF3B1F800C00CEAE5
:102F300003069E4221D183004FF00F0C0CFA03F7D9
:102F4000BC4305FA03FC4CEA040491F803C0BCF14D
:102F5000280F05D100F1080C08FA0CF8C2F814800B
:102F600091F803C0BCF1480F07D100F1080C4FF0F5
:102F7000010808FA0CF8C2F81080401C0828CED3CB
:102F80005460BDE8F0814FF6FF710180022181702D
:102F90000421C17070470246002093680B400BB1BA
:102FA000012000E0002070470146886880B2704729
:102FB00002460020D3680B400BB1012000E0002046
:102FC00070470146C86880B270470161704741612F
:102FD00070470AB1016100E041617047C16070470C
:102FE0004FF480320A438261816182618269826921
:102FF000704702460020434B18684FF68073184014
:1030000040EA021008433F4B186070473E49C861D0
:103010007047F0B50A46002300240021002500F087
:103020000046B6F1004F02D1364EF16901E0354E4F
:103030007168C0F3034583B200F44016B6F5401F33
:1030400008D121F070612F4E766826F070662D4F02
:103050007E6012E000F48016B6F5801F06D10326CC
:1030600006FA05F4A14341F0706106E0460D360111
:1030700003FA06F6B14341F0706122B1460D360104
:1030800003FA06F6314300F00046B6F1004F02D1D4
:103090001C4EF16101E01B4E7160F0BD30B50022A5
:1030A0008B071C0F0F2303FA04F2164B08338C1006
:1030B00053F824309343134C08348D1044F82530D2
:1030C00023468C1053F824308C07240F00FA04F4A4
:1030D00023430C4C08348D1044F8253030BD0A4988
:1030E000DC3108607047000000080140000C01401E
:1030F000001001400014014000180140001C014074
:10310000002001400000014000002042DF4800682C
:1031100040F00100DD49086008464068DC4908408D
:10312000DA49486008460068DA490840D74908602B
:103130000846006820F4802008600846406820F4B3
:10314000FE0048604FF41F0088607047CF4909684F
:1031500021F48031CD4A11601146096821F48021A3
:103160001160B0F5803F03D0B0F5802F0ED106E09E
:10317000C649096841F48031C44A116007E0C34977
:10318000096841F4A021C14A116000E000BF00BFFE
:10319000704710B501460022002300204A11012A81
:1031A00002D1BA4C236806E0022A02D1B74C236A46
:1031B00001E0B64C636A01F01F02012494401C40F8
:1031C0000CB1012000E0002010BD38B500200090B7
:1031D0000024002500BF3120FFF7DBFF05460098E3
:1031E000401C00900098B0F5A06F01D0002DF2D0E7
:1031F0003120FFF7CEFF08B1012400E00024204673
:1032000038BD01460020A14A106820F0F80040EACD
:10321000C10010607047A049086070470246002056
:103220009A4B586820F47C1042EA01031843974BEC
:103230005860704798490866704701460020934AD5
:10324000506820F003000843506070478F48406882
:1032500000F00C007047014600208C4A506820F0B6
:10326000F00008435060704701460020874A5068CC
:1032700020F4E06008435060704701460020834A14
:10328000506820F4605040EAC1005060704729B196
:103290007E4A527A02437D4B5A7204E07B4A527A4C
:1032A00082437A4B5A7270477B49D8310860704725
:1032B00001460020754A506820F4404008435060A1
:1032C00070470021714A20321170704A82F8201034
:1032D000012802D004280AD104E001216B4A2032DF
:1032E000117005E00521694A2032117000E000BF2D
:1032F00000BF70476949086070476449096A014323
:10330000624A11627047654944390860704730B5B8
:1033100000210022002400235C4D6D6805F00C01A3
:1033200021B1042905D0082923D105E05C4D0560B1
:1033300022E05B4D05601FE0544D6D6805F470128E
:10334000524D6D6805F48034022505EB92421CB99C
:10335000544D554305600BE04C4D6D6805F4003548
:103360001DB1504D5543056002E04D4D554305607C
:1033700002E04B4D056000BF00BF444D6D6805F095
:10338000F0010909484D6B5C0568DD4045603F4D23
:103390006D6805F4E061090A434D6B5C4568DD40EA
:1033A00085603A4D6D6805F46051C90A3E4D6B5C0D
:1033B0004568DD40C560354D6D6805F44041890BB9
:1033C0003A4D6B5CC568B5FBF3F5056130BD29B1BD
:1033D0002E4A526902432D4B5A6104E02B4A52692E
:1033E00082432A4B5A61704729B1284A92690243A5
:1033F000264B9A6104E0254A92698243234B9A61E5
:10340000704729B1214AD2690243204BDA6104E0B6
:103410001E4AD26982431D4BDA61704729B11B4AAB
:10342000D2680243194BDA6004E0184AD26882433A
:10343000164BDA60704729B1144A12690243134BE4
:103440001A6104E0114A12698243104B1A617047F5
:1034500012494039086070470F49C86470470B49EA
:10346000C87170470948406A40F080700749486257
:10347000704701460020054A92680A400AB10120BF
:1034800000E0002070470149887270470010024038
:103490000000FFF8FFFFF6FE0000424280044242B7
:1034A00000127A0000093D00F7000020070100200B
:1034B00010B50446FE48844208D10121C014FFF72C
:1034C000ADFF0021E014FFF7A9FFC4E0B4F1804F85
:1034D00008D101210846FFF7AEFF00210120FFF7C8
:1034E000AAFFB8E0F348844208D101210220FFF787
:1034F000A2FF00210220FFF79EFFACE0EE488442CD
:1035000008D101210420FFF796FF00210420FFF7D6
:1035100092FFA0E0E948844208D101210820FFF78A
:103520008AFF00210820FFF786FF94E0E4488442E8
:1035300008D101211020FFF77EFF00211020FFF7A6
:103540007AFF88E0DF48844208D101212020FFF77C
:1035500072FF00212020FFF76EFF7CE0DA488442F2
:1035600008D101214014FFF759FF00216014FFF733
:1035700055FF70E0D548844209D10121C804FFF706
:103580004DFF00214FF40020FFF748FF63E0D048D3
:10359000844209D101210805FFF740FF00214FF4C3
:1035A0008010FFF73BFF56E0CA48844209D1012151
:1035B0004805FFF733FF00214FF40010FFF72EFFFF
:1035C00049E0C548844208D101214020FFF733FF7C
:1035D00000214020FFF72FFF3DE0C048844208D182
:1035E00001218020FFF727FF00218020FFF723FF24
:1035F00031E0BB48844208D101218015FFF71BFF51
:103600000021A015FFF717FF25E0B648844209D135
:1036100001210804FFF702FF00214FF48030FFF77B
:10362000FDFE18E0B048844209D101214804FFF7AB
:10363000F5FE00214FF40030FFF7F0FE0BE0AB4841
:10364000844208D101218804FFF7E8FE00214FF4ED
:103650008020FFF7E3FE10BD00220288944B9842C1
:103660000ED0994B98420BD0B0F1804F08D0914BBF
:10367000984205D0904B984202D0904B984204D18A
:103680004FF68F731A404B881A438D4B984207D0E0
:103690008C4B984204D04FF6FF431A40CB881A4314
:1036A00002808B8883850B880385814B98420BD0E1
:1036B000854B984208D08B4B984205D08A4B984254
:1036C00002D08A4B984201D10B7A03860123838270
:1036D000704770B5002400220023058C4FF6FE765B
:1036E00035400584028C8388048B4FF68F752C40FF
:1036F000B51E2C400D882C43751E2A400D892A4387
:103700004D882A436A4DA8420BD06F4DA84208D07D
:10371000744DA84205D0744DA84202D0734DA84202
:1037200013D14FF6F7752A404D892A434FF6FB75A2
:103730002A408D882A434FF6FF652B404FF6FF55F0
:103740002B408D892B43CD892B4383800483CD88E7
:103750008586028470BD70B5002400220023058C8C
:103760004FF6EF7635400584028C8388048B48F64B
:10377000FF752C404FF6FF452C400D884FF6FF7625
:1037800006EA05252C434FF6DF752A400D8906EA27
:1037900005152A434D8806EA05152A43444DA842DB
:1037A00002D0494DA8421DD14FF67F752A404D8960
:1037B0004FF6FF7606EA05152A434FF6BF752A40F5
:1037C0008D8806EA05152A434FF6FF352B404FF248
:1037D000FF752B408D8906EA85052B43CD8906EAC6
:1037E00085052B4383800483CD880587028470BDC3
:1037F00070B5002400220023058C4FF6FF6635408B
:103800000584028C8388848B4FF68F752C404FF68D
:10381000FC752C400D882C434FF6FF552A400D892E
:103820004FF6FF7606EA05252A434D8806EA052568
:103830002A431F4DA84202D0234DA8421DD14FF26A
:10384000FF752A404D894FF6FF7606EA05252A4383
:103850004FF6FF352A408D8806EA05252A434EF6A5
:10386000FF752B404DF6FF752B408D8906EA051537
:103870002B43CD8906EA05152B4383808483CD88AD
:103880008587028470BD70B5002200230024058C5A
:103890004EF6FF7635400584038C8488828B48F68B
:1038A000FF752A404FF6FF452A400D8820E00000B2
:1038B000002C01400004004000080040000C0040C3
:1038C000001000400014004000340140004C014052
:1038D000005001400054014000180040001C00400E
:1038E00000200040004001400044014000480140E9
:1038F0004FF6FF7606EA05252A434DF6FF752B4065
:103900000D8906EA05352B434D8806EA05352B431C
:10391000FA4DA84202D0FA4DA84208D14BF6FF75E5
:103920002C408D894FF6FF7606EA85152C4384805E
:103930008283CD88A0F84050038470BD828B4FF203
:10394000FF331A408283828B4FF6FF7303EA012311
:103950001A4382837047F0B50C46154600220021B9
:103960000026078C4EF6FF7C07EA0C070784828B43
:10397000018C4FF6FF7707EA043640F6FF473A40DE
:103980004FF6FF7707EA05273A434FF6FF7707EA36
:1039900003373A43D94FB8420ED0D94FB8420BD073
:1039A000B0F1804F08D0D74FB84205D0D64FB842BB
:1039B00002D0D64FB84206D14DF6FF77394046F4D3
:1039C0008057394305E047F6FF57394044F48057A4
:1039D000394382830184F0BD828B4FF6F3731A4022
:1039E0008283828B0A4382837047F0B50C4615466A
:1039F000002200210026078C4FF6FF6C07EA0C0717
:103A00000784828B018C4FF6FF7707EA04264FF676
:103A10000C773A404FF6FF7707EA03172F433A43F4
:103A2000B64FB8420ED0B64FB8420BD0B0F1804F6F
:103A300008D0B44FB84205D0B34FB84202D0B34F0C
:103A4000B84206D14FF6FF57394046F480773943E4
:103A500005E04FF2FF57394044F4807739438283C1
:103A60000184F0BD028B4FF2FF331A400283028BB8
:103A70004FF6FF7303EA01231A4302837047F0B540
:103A80000C461546002200210026078C4FF6EF7CDD
:103A900007EA0C070784028B018C4FF6FF7707EAD1
:103AA000041640F6FF473A404FF6FF7707EA033720
:103AB0003A434FF6FF7707EA05273A438F4FB8425C
:103AC0000ED08F4FB8420BD0B0F1804F08D08D4F41
:103AD000B84205D08C4FB84202D08C4FB84206D1C4
:103AE0004FF6DF77394046F01007394305E04FF6CF
:103AF0005F77394044F01007394302830184F0BDF9
:103B0000028B4FF6F3731A400283028B0A4302833F
:103B10007047F0B50C46154600220021068C4FF682
:103B2000FE773E400684028B018C4FF60C763240C5
:103B30007E1C06EA03162E433243704EB0420ED06E
:103B40006F4EB0420BD0B0F1804F08D06D4EB042F6
:103B500005D06D4EB04202D06C4EB04206D14FF649
:103B6000FD76314044F00106314305E04FF6F5762D
:103B7000314044F00106314302830184F0BD70B549
:103B800005460C465D4885420ED05D4885420BD007
:103B9000B5F1804F08D05B48854205D05A48854230
:103BA00002D05A48854200D100E000BF208850B9B9
:103BB0002389A28861882846FFF7ABFFE188284661
:103BC000FFF79EFF25E0208804280AD12389A288D8
:103BD00061882846FFF753FFE1882846FFF742FF38
:103BE00017E0208808280AD12389A28861882846FE
:103BF000FFF7FBFEE1882846FFF7EEFE09E0238988
:103C0000A28861882846FFF7A6FEE1882846FFF7CC
:103C100095FE70BD2DE9F04105460C4600260127B2
:103C2000608808B9022600E00026A088012801D19A
:103C3000022700E001272088A0B92389A288618893
:103C40002846FFF766FFE1882846FFF759FF2389DA
:103C50003A4631462846FFF712FFE1882846FFF72B
:103C600001FF13E02389A28861882846FFF707FF38
:103C7000E1882846FFF7F6FE23893A463146284672
:103C8000FFF747FFE1882846FFF73AFFBDE8F081DC
:103C90000A884B881A438B881A43CB881A430B89AE
:103CA0001A434B891A438B891A43A0F84420704762
:103CB0004FF6FF71818000210180C1804180017237
:103CC00070470021018041808180C1800181418154
:103CD0008181C18170470021018041800121818063
:103CE0000021C180018170470021018041808180D5
:103CF000C18001814181818170470000002C014019
:103D0000003401400004004000080040000C004066
:103D100021B1028842F00102028004E002884FF6DD
:103D2000FE731A400280704731B1B0F8442042F46B
:103D30000042A0F8442005E0B0F84420C2F30E028F
:103D4000A0F8442070471AB183890B43838102E0B5
:103D500083898B43838170478182704741EA0203E4
:103D6000A0F8483070471AB183890B43838102E081
:103D700083898B438381704701894FF6F872114024
:103D8000018170470A46002101894FF68F7319405F
:103D900011430181704730B504460D46294620463F
:103DA000FFF7F0FF208940F00700208130BD2DE9AA
:103DB000F04104460D4616461F46602D06D13B468F
:103DC000012231462046FFF75AFE05E03B4601221C
:103DD00031462046FFF79DFE29462046FFF7D2FFD9
:103DE000208940F007002081BDE8F08130B50C4605
:103DF00000210189C9B24FF6FF7505EA0325154375
:103E000025432943018130BD2DE9F04105460E4689
:103E100017469846002443463A4631462846FFF75F
:103E2000E5FF2C894FF6F870044044F007044FF684
:103E30008F70044044F070042C81BDE8F081F0B52F
:103E400004460D4616461F463B4632462946204646
:103E5000FFF7CCFF208940F480402081F0BD018530
:103E6000828270470A46002101884FF68F731940FD
:103E7000114301807047F0B50C4615461E460021DF
:103E8000002200230189028B038C4FF6F87739401A
:103E900021434FF6FC473A4040F201173A434FF6B0
:103EA000DD773B404FF6FF7707EA06172F433B438A
:103EB000018102830384F0BD0A460021018B4FF685
:103EC0008F7319401143018370470A460021018B0B
:103ED00048F6FF7319404FF6FF7303EA02231943B4
:103EE000018370470A460021818B4FF68F7319407A
:103EF0001143818370470A460021818B48F6FF7386
:103F000019404FF6FF7303EA022319438183704778
:103F100021B1028842F08002028004E002884FF65C
:103F20007F731A400280704721B1828842F00402F8
:103F3000828004E082884FF6FB731A4082807047CB
:103F400021B1828842F00802828004E082884FF624
:103F5000F7731A408280704721B1828842F00102D3
:103F6000828004E082884FF6FE731A408280704798
:103F70000A460021018B4FF6F77319401143018364
:103F800070470A460021018B4FF2FF7319404FF62C
:103F9000FF7303EA02231943018370470A46002195
:103FA000818B4FF6F77319401143818370470A469E
:103FB0000021818B4FF2FF7319404FF6FF7303EA24
:103FC00002231943818370470A460021018B4FF673
:103FD000FB7319401143018370470A460021018B8E
:103FE0004FF6FF3319404FF6FF7303EA02231943DC
:103FF000018370470A460021818B4FF6FB731940FD
:104000001143818370470A460021818B4FF6FF33AD
:1040100019404FF6FF7303EA022319438183704767
:104020000A460021018B4FF67F731940114301832B
:1040300070470A460021018BC1F30E014FF6FF7352
:1040400003EA02231943018370470A460021818B4A
:104050004FF67F7319401143818370470A46002150
:10406000818BC1F30E014FF6FF7303EA022319435C
:10407000818370470A460021018C4FF6FD73194079
:104080001143018470470A460021018C4FF6F773F3
:1040900019401143018470470A460021018C4FF6F4
:1040A000DF7319404FF6FF7303EA021319430184CB
:1040B00070470A460021018C4FF67F7319404FF676
:1040C000FF7303EA02131943018470470A46002173
:1040D000018C4FF6FF5319404FF6FF7303EA02239A
:1040E0001943018470470A460021018C4FF2FF7387
:1040F00019404FF6FF7303EA022319430184704706
:104100000A460021018C4DF6FF7319404FF6FF73EC
:1041100003EA023319430184704730B500230124B8
:104120008C40A3B2048C9C430484048C02FA01F5F5
:10413000ADB22C43048430BD30B5002304248C4040
:10414000A3B2048C9C430484048C02FA01F5ADB242
:104150002C43048430BD70B503460020002418466B
:10416000183001258D40ACB21D8CA5431D8409B1CA
:10417000082909D100EB6100056825F0700505608C
:104180000568154305600EE00D1FC5F34E05284474
:10419000056825F4E045056005684FF6FF7606EAF8
:1041A00002263543056070BD21B1028842F002024B
:1041B000028004E002884FF6FD731A4002807047C7
:1041C00021B1028842F00402028004E002884FF626
:1041D000FB731A400280704721B1828842F080024E
:1041E000828004E082884FF67F731A408280704795
:1041F00002884FF6F7731A40028002880A43028051
:10420000704782884FF68F731A40828082880A43F3
:104210008280704702894FF6F8731A400281028942
:104220000A430281704702894FF67F731A40028168
:1042300002890A43028170478184704781857047F3
:10424000818670470187704781877047A0F84010CA
:10425000704702884FF6FF431A40028002880A43E3
:10426000028070470146888E70470146088F70476C
:104270000146888F70470146B1F8400070470146FB
:10428000888C70470146088D704702460020138ACB
:104290000B400BB1012000E000207047CA430282AE
:1042A000704730B50246002000230024158A05EA35
:1042B0000103958905EA010413B10CB1012000E066
:1042C000002030BDCA4302827047000010B504468A
:1042D000FB48844209D101218803FFF79FF80021A0
:1042E0004FF48040FFF79AF832E0F648844209D153
:1042F00001214804FFF79FF800214FF40030FFF739
:104300009AF825E0F048844209D101218804FFF79A
:1043100092F800214FF48020FFF78DF818E0EB4869
:10432000844209D10121C804FFF785F800214FF428
:104330000020FFF780F80BE0E548844208D1012116
:104340000805FFF778F800214FF48010FFF773F8A5
:1043500010BD2DE9F04786B005460E460024A24662
:1043600000BFA1460027B08900B100BF2F462C8AAC
:104370004CF6FF700440F08804432C82AC894EF662
:10438000F3100440B088318908437189084304431D
:10439000AC81AC8A4FF6FF400440B0890443AC8244
:1043A00001A8FEF7B4FFC648874202D1DDF810A08D
:1043B00001E0DDF80CA0A88900F4004040B10AEB50
:1043C000CA0000EB0A1031684900B0FBF1F807E0C1
:1043D0000AEBCA0000EB0A1031688900B0FBF1F863
:1043E0006420B8FBF0F004012009642101FB10896E
:1043F000A88900F4004040B1322000EBC900B0FBB6
:10440000F1F000F00700044308E0322000EB09104F
:104410006421B0FBF1F000F00F0004432C8106B0E2
:10442000BDE8F0874FF41651016000218180C18002
:1044300001810C21418100218181704710B5024624
:104440000020108A4FF2FF0318400B884C8823434A
:104450008C882343CC8823431843108210BD00214D
:10446000018041808180C180704721B1828942F4FE
:104470000052828104E082894DF6FF731A408281E6
:104480007047F0B50346002400260025002040F6C2
:104490006A17B94200D100BF1846C1F3421401F0B7
:1044A0001F06012707FA06F5012C01D10C3004E0A4
:1044B000022C01D1103000E014301AB107682F43EC
:1044C000076002E00768AF430760F0BD1AB1838A56
:1044D0000B43838202E0838A8B4383827047028A84
:1044E0004FF6F0731A400282028A0A430282704732
:1044F00082894FF2FF731A40828182890A43828146
:10450000704721B1828942F00202828104E08289EF
:104510004FF6FD731A4082817047028A4FF6DF73AF
:104520001A400282028A0A430282704721B1028A3B
:1045300042F48042028204E0028A4BF6FF731A4082
:1045400002827047C1F30802828070470146888862
:10455000C0F308007047818941F0010181817047F3
:10456000028BD2B20283028B42EA0122028370479D
:10457000028B02F47F420283028B0A43028370475C
:1045800021B1828A42F02002828204E0828A4FF6C0
:10459000DF731A408282704721B1828A42F0100292
:1045A000828204E0828A4FF6EF731A40828270475B
:1045B00021B1828A42F00802828204E0828A4FF6A8
:1045C000F7731A408282704721B1828942F4004217
:1045D000828103E08289C2F30E028281704721B199
:1045E000828A42F40062828204E0828A4FF2FF7380
:1045F0001A4082827047828A4FF6FB731A40828289
:10460000828A0A438282704721B1828A42F0020282
:10461000828204E0828A4FF6FD731A4082827047DC
:1046200002460020B1F5007F00D100BF13880B4087
:104630000BB1012000E00020704701F40072B2F5D8
:10464000007F00D100BFCA430280704770B50246A8
:10465000002400230025002040F66A16B14200D154
:1046600000BFC1F3421501F01F03012606FA03F350
:10467000012D02D19689334006E0022D02D1168A1F
:10468000334001E0968A33400C12012606FA04F406
:104690001688344013B10CB1012000E0002070BD39
:1046A00010B50022002340F66A14A14200D100BFD9
:1046B0000A1201249440A3B2DC43048010BD000020
:1046C000003801400044004000480040004C0040D9
:1046D0000050004010B50446BE48844208D1012174
:1046E0008014FEF79BFE0021A014FEF797FE16E053
:1046F000B948844208D101210014FEF79CFE002134
:104700002014FEF798FE0AE0B448844207D1012144
:10471000C013FEF790FE0021E013FEF78CFE10BDE3
:1047200010B50022028802F441520B884C882343C2
:104730008C882343CC8823430C8923434C8923430F
:104740008C892343CC8923431A430280838B4FF205
:10475000FF74234083830B8A038210BD2DE9F04F41
:1047600085B005460C464FF0000902274FF00008BF
:104770004FF0010B0026B246A88B4FF240010840D3
:10478000A88302202884B5F81C90A068022801D1D3
:1047900000BF38E0A08810B94FF0010B01E04FF0E6
:1047A000020B8D48854200D100E000BF6846FEF74D
:1047B000AEFDDDF800A0E088B0F5007F0AD14FEA39
:1047C0001A2000EB80004000A168B0FBF1F0401D12
:1047D00086B20BE04FEA4B10BAFBF0F000EB800022
:1047E0004000A168B0FBF1F0401D86B20A20B6FB84
:1047F000F0F606F00108A6EB0800C0F34F074FF6ED
:10480000FF7000EA0828022F01DBFF2F02DD0227DC
:104810004FF00008E08840EA080038432884A08868
:10482000A1890843618808432188084340F4006057
:1048300040EA0909A5F81C9005B0BDE8F08F0021F9
:10484000018041808180C180018141818181C1815C
:104850000721018270470021018041808180C18051
:104860000221816000218181704721B1028842F0DC
:104870004002028004E002884FF6BF731A400280B3
:10488000704721B1828B42F48062828304E0828B84
:104890004FF6FF331A408283704730B5002400235F
:1048A0000C110125A540ABB21AB185881D43858046
:1048B00002E085889D43858030BD1AB183880B4313
:1048C000838002E083888B438380704781817047B7
:1048D0000146888970474FF6FF62914204D00288F2
:1048E00042F48072028004E002884FF6FF631A40AF
:1048F0000280704721B1828842F00402828004E085
:1049000082884FF6FB731A408280704702884FF20C
:10491000FF731A40028002880A43028070470188B0
:1049200041F480510180704721B1028842F4005265
:10493000028004E002884DF6FF731A40028070473F
:1049400002460020012901D0108B00E0908A7047B8
:104950000146088A7047B1F5804F04D1028842F4BD
:104960008042028004E002884BF6FF731A40028006
:1049700070470246002013890B400BB1012000E074
:1049800000207047CA4302817047F0B502460020FC
:1049900000240023002501F00F070126BE40B4B219
:1049A0000B1101269E40B3B2968806EA03051689CC
:1049B000264016B10DB1012000E00020F0BD10B579
:1049C000002201F00F040123A3409AB2D3430381D4
:1049D00010BD00000030014000380040003C0040A5
:1049E0002DE9F0478EB081460E461746002500247B
:1049F000A046AA222146641C0DF801202146641C11
:104A00000DF8012001222146641C0DF8012000222E
:104A10002146641C0DF80120B049484600F0F4F925
:104A2000824600F008FC0D909DF835202146641C5C
:104A30000DF801209DF834202146641C0DF801205A
:104A4000A649304600F0E0F9824600F0F4FB40420F
:104A50000D909DF835202146641C0DF801209DF82D
:104A600034202046611CCCB20DF800209B4938460A
:104A700000F0CAF9824600F0DEFB0D909DF835206B
:104A80002146601CC4B20DF801209DF83420214657
:104A9000601CC4B20DF80120201FC0B28DF80300C5
:104AA00000BF06E01DF80500404400F0FF08681C48
:104AB000C5B2A542F6DB2046611CCCB20DF80080E1
:104AC000002505E01DF80500FDF76BFB681CC5B26D
:104AD000A542F7DB0EB0BDE8F08708B50124FBF76F
:104AE0007EFB4820FBF7FCFB6420FBF713FCFDF783
:104AF000DBFA6420FBF70EFCFBF734FD6420FBF7C8
:104B000009FCFBF746FD6420FBF704FCFDF7AFFE54
:104B10006420FBF7FFFBFDF7FFFF714908700846B3
:104B20000078012801D000BFFEE7FDF7AEFA64204F
:104B3000FBF7F0FBFBF7F0FF01216A48FEF769FA8B
:104B4000FDF746FE6420FBF7E5FBFEF767F8002063
:104B5000654908806549088065490880654908807D
:104B60004FF47A70FBF7D6FB4FF47A70FBF7D2FB69
:104B70004FF47A70FBF7CEFBAEE04FF480515E4805
:104B8000FEF725FAFDF771FF5C48FEF710F854496F
:104B9000087001205A4908705148007840287DD19A
:104BA000564800780528FAD104215648FEF70FFA36
:104BB000524880785149497800EB012052490860F9
:104BC000012C03D14D48FDF7E4FB00244648008842
:104BD000022805DB4D48FCF703FD00204249088010
:104BE00042480088052809DB4748494A4949036883
:104BF0004648FDF7D6FC00203C4908803C48008828
:104C00000A2843DB3D49087E00F0FFFA824641480E
:104C1000C168504600F0A0F8814600F025FB85B23F
:104C20003649C87D00F0F1FA82463A48816850461C
:104C300000F092F8814600F017FB86B22F49887D7C
:104C400000F0E3FA824633484168504600F084F8A9
:104C5000814600F009FB87B22849487D00F0D5FA6B
:104C600082462C480168504600F076F8814600F0F4
:104C7000FBFA1FFA80F833463A46414646F2A8103E
:104C80000095FDF7A4F9002019490880194800880B
:104C90000A2821DB1D4B1A68996800E006E0586875
:104CA000FFF79EFE00201349088015E00C480078AD
:104CB000402811D11148007870B94FF47A7003463A
:104CC00002460146009046F2A810FDF780F9042143
:104CD0000C48FEF77AF901244FE700000000C842B3
:104CE00025010020000230000C0100200E010020F0
:104CF000100100201201002000100140800300205C
:104D00002401002000140140200100205403002051
:104D10007003002060030020704700BFFEE700BF63
:104D2000FEE700BFFEE700BFFEE770477047704731
:104D3000704700000648804706480047FEE7FEE748
:104D4000FEE7FEE7FEE7FEE7FEE7FEE7FEE7FEE73B
:104D5000DF010008ED000008F0B480EA0102D40F82
:104D60004200B2EB410F02D20246084611464A0009
:104D700042D0C30DDDB2C1F3C752AD1A202D35DAD2
:104D8000C1F3160141F4000204B15242C5F12006FC
:104D900002FA06F12A411044B3EBD05F23D0C4B12C
:104DA000012DA0EBC35009DCF0BC4FF0004202EA39
:104DB000C352DBB200F5000000F01ABB400000F166
:104DC000807000EBC350A0F1807040EAD1704900C0
:104DD00009E0490841EAC071A0EBC35000F50000AA
:104DE000400800EBC350F0BC00F0F9BA6142012268
:104DF00002EB4101001BF6E7F0BC704781F0004177
:104E0000AAE780F00040A7E780EA010210B502F0AF
:104E10000043400022D04A001FD0010E01EB126176
:104E2000C0F35600C2F3560240F4000042F4000200
:104E3000A0FB022000047F39140400D0401C50EA7B
:104E4000124001D44000491EC2B20C0604EBD0103F
:104E5000401C4008802A02D003E0002010BD20F052
:104E60000100002900DA0020184310BD30B480EAA8
:104E7000010202F0004530F0004221F0004013D062
:104E800090B1C30DD40DC2F31601C0F31600E41A9D
:104E900041F4000140F400027D34914201D3641CCE
:104EA00000E04900002C02DA30BC002070474FF4CB
:104EB00000000023914201D3891A034340084FEABE
:104EC0004101F7D151B1914202D14FF0004105E0CB
:104ED00002D24FF0010101E06FF0010103EBC45079
:104EE000284430BC00F07BBA2DE9FE4F804681EAB1
:104EF0000300C00F0C46009021F0004123F0004554
:104F0000B8EB0200A94105D24046214690461C4616
:104F10000B46024623F00040104347D0270DC7F34D
:104F20000A00C3F30A510290401A019040286BDA3C
:104F3000C3F3130040F4801B0098924620B1002375
:104F4000D2EB030A63EB0B0B01985946C0F1400208
:104F5000504600F013FA06460D4650465946019A4F
:104F600000F02BFA10EB08006141002487EA11528F
:104F700084EAE7731A4340D0009A62B3019A012A87
:104F80004FEA075215DC001B61EB02014FF00042B3
:104F900002EA0752CDE90042001C41F58011324679
:104FA0002B4600F060FA03B0BDE8F08F4046214682
:104FB000F9E7001B61EB0201001C41F580130018AA
:104FC0005B412018A2F5001747EB030140EAD570BA
:104FD000B6196D4111E06D084FEA360645EAC07515
:104FE0004FEA0752001B61EB0201001C41F58011E2
:104FF00049084FEA30000019514132462B4603B0B0
:10500000BDE8F04F00F022BA0098012240000023D2
:10501000D0EB020263EBE073009821464FEAE074A4
:10502000B8EB000061EB0401E9E783F000435BE7C4
:1050300081F0004158E72DE9FE4F81EA030404F0B6
:10504000004421F0004100944FF0000B23F0004396
:1050500050EA01045ED052EA03045BD0C3F30A5461
:10506000C1F30A552C44A4F2F3340194A0FB02547A
:10507000C1F3130141F48011C3F3130343F480130C
:1050800001FB024400FB034E840A970A44EA815460
:1050900047EA8357A4FB076802958D0A05FB07853D
:1050A0004FEA932C04FB0C542705029D4FEA065847
:1050B00047EA1637B5EB08056EEB070C870E920E24
:1050C00047EA811742EA8312A7FB0201B6EB0B0104
:1050D00064EB00042B0D43EA0C335E1844EB1C50C8
:1050E000DA465146E7FB0201C5F313044FEA0B33DE
:1050F00043EA14534FEA0432019C43EA0603A4F145
:105100000C040294009CCDE900B400F0ACF903B0AB
:10511000BDE8F08F00200146F9E72DE9F04D81EA66
:10512000030404F0004B21F0004514464FF0000A40
:1051300023F0004150EA050220D054EA01021DD0BC
:10514000C5F30A570246C5F31303C1F31300C1F3B5
:105150000A5640F4801543F48013A7EB0608101B91
:10516000D64608F2FD3873EB050002D308F10108BA
:1051700001E092185B41B8F1000F03DA002001460C
:10518000BDE8F08D00204FF48011064684460EE005
:10519000171B73EB050705D3121B63EB05030643CF
:1051A0004CEA010C49084FEA300092185B4150EA82
:1051B0000107EDD152EA030012D082EA040083EA2B
:1051C0000501084305D0101BAB4106D20122002384
:1051D00006E000224FF0004302E06FF0010253109E
:1051E0001AEB06004CEB085110EB0A0041EB0B01E7
:1051F000BDE8F04D00F02AB9C10F80EAE070084424
:10520000CA079623002100F0F3B896230022114626
:1052100000F0EEB80EB5C10F80EAE0700844CA078E
:10522000002140F233438DE80E000A460B4600F0A1
:105230001AF903B000BD00F0004220F00040C10D9B
:10524000C0F3160040F400007F2901DA0020704707
:10525000962903DCC1F19601C84001E096398840E7
:10526000002AF4D04042704720F00040C10DC0F346
:10527000160040F400007F2901DA002070479629CB
:1052800003DCC1F19601C8407047963988407047E9
:1052900070B5C1F30A5201F000450024C1F31301B7
:1052A00040F2FF3341F480119A4201DA002070BDD0
:1052B00040F233439A42A2F2334203DC524200F0FE
:1052C0006CF800E090402C43F1D0404270BD00F0FB
:1052D000004230F000400AD0C10D01F56071C0F30A
:1052E000160042EA0151C2084007114370470020EE
:1052F0000146704730B5002904DB4FF000444042BE
:1053000064EB0101002B04DB4FF00044524264EBDC
:105310000303994208BF904230BD000001F00043F2
:1053200030B421F0004150EA010206D00A0DA2F586
:105330006072C1F31301002A02DC30BC0020704708
:10534000440F44EAC104C100E01830BC00EBC25075
:1053500000F045B8002801DBC0F10040002901DB66
:10536000C1F1004181427047002801DBC0F10040DB
:10537000002901DBC1F1004188427047202A04DB8B
:10538000203A00FA02F1002070479140C2F1200358
:1053900020FA03F3194390407047202A04DB203A97
:1053A00021FA02F00021704721FA02F3D040C2F145
:1053B00020029140084319467047202A06DBCB178C
:1053C000203A41FA02F043EAE07306E041FA02F3C0
:1053D000D040C2F12002914008431946704700298D
:1053E000A8BF7047401C490008BF20F0010070476B
:1053F00010B4B0FA80FC00FA0CF050EA010404BFCB
:1054000010BC704749B1CCF1200421FA04F411FA20
:105410000CF118BF012121430843A3EB0C01CB1D64
:105420004FEA00614FEA102042BF002010BC7047D5
:1054300000EBC35010440029A4BF10BC7047401CAF
:10544000490008BF20F0010010BC704710B5002BC8
:1054500008DA401C41F1000192185B411A4301D166
:1054600020F0010010BD2DE9F04D92469B4611B190
:10547000B1FA81F202E0B0FA80F220329046FFF7F2
:105480007DFF04460F4640EA0A0041EA0B015346FD
:105490005A46084313D0114653EA010019D0C8F107
:1054A00040025046FFF779FF05460E4650465946E2
:1054B0004246FFF763FF084305D0012004E0204681
:1054C0003946BDE8F08D0020054346EAE0762C43DE
:1054D00037430A986305E40AA0EB08000022FD0A9E
:1054E00044EA47540A3002D500200146E9E70105A5
:1054F00010196941DDE9084500196941BDE8F04D21
:10550000A4E770B521F0004303430CD0C1F30A5562
:105510000024D5EB040564EB0403D617AD1AB341A0
:1055200002DB0020014670BD201841EB025170BD26
:105530002DE9F04D00231A461B1A8A4103DB002097
:105540000146BDE8F08DC1F30A52C1F3130141F4E5
:1055500080154FF0000BD10702D100186D41521E8B
:105560000027044640F2FF11384601EB620A3E462E
:105570008046024600204FF48011FFF70EFFC2194B
:105580007141BB1846EB0100B4EB030C75EB000C4A
:1055900004D3E41A65EB000517460E46241908F1FA
:1055A00001006D4180463428E3DDF91946EB060021
:1055B000091BA84103D24FF0FF32134601E000223D
:1055C00013461BEB070046EB0A51BDE8F04DFFF711
:1055D0003DBF0000064C074D06E0E06840F00103C7
:1055E00094E8070098471034AC42F6D3FAF782FDEE
:1055F000B85E0008D85E000870B58C1810F8015B22
:1056000015F0070301D110F8013B2A1106D110F85B
:10561000012B03E010F8016B01F8016B5B1EF9D15F
:105620002B0705D40023521E0DD401F8013BFAE7E5
:1056300010F8013BCB1A921C03E013F8015B01F850
:10564000015B521EF9D5A142D8D3002070BD49009C
:1056500050EAC12018BF04204A0D18BF40F00100D5
:1056600040F2FF72B2EB515F08BF40F00200012828
:1056700008BF052070472DE9F0414F1E00EBC70120
:105680000446D1E9000115461E4637F006020DD04A
:105690002A463346FFF7CFFC7F1E04EBC703D3E94E
:1056A0000023FFF721FC37F00602F1D1022F25D0AD
:1056B000042F13D0062F18BFBDE8F0812A463346C9
:1056C000FFF7B9FCD4E90A23FFF70EFC2A4633465C
:1056D000FFF7B1FCD4E90823FFF706FC2A4633465E
:1056E000FFF7A9FCD4E90623FFF7FEFB2A46334661
:1056F000FFF7A1FCD4E90423FFF7F6FB2A46334663
:10570000FFF799FCD4E90223FFF7EEFB2A46334664
:10571000FFF791FCD4E90023BDE8F041FFF7E4BBBB
:10572000024A00201107FFF7ECBE000001FDFFFF59
:1057300002E008C8121F08C1002AFAD1704770475A
:10574000002001E001C1121F002AFBD170470000B8
:105750000149086070470000280100202DE9F04D44
:10576000904F21F0004A86B005460C46BA4530DB22
:10577000AAEB070028430CD08B48824501DC1CD1E2
:10578000DDB106B02846BDE8F04D4FF00102FFF74D
:10579000B8BE864A864B2846FFF74DFC07460E46A4
:1057A000844A854B28462146FFF745FC06B03A4619
:1057B0003346BDE8F04DFFF797BB0120FFF7C8FF68
:1057C00006B00022BDE8F04D134610461146FFF723
:1057D000A4BC7A48824542DABAF1795F0BDA2846EE
:1057E000FFF735FF042808BFFFF79AFF284606B0E9
:1057F0002146BDE8F08D2A460B461046FFF71BFCFC
:10580000834602466E480E460B4606217844FFF753
:1058100032FF5A463346FFF70EFC804669488A46F7
:105820005A46334604217844FFF725FF5A4633464B
:10583000FFF701FC00223B46FFF756FB02460B46F2
:1058400040465146FFF769FC2A462346FFF7F3FB23
:1058500006B02A462346BDE8F04DFFF745BB284673
:1058600024F0004100223D463B46FFF7E1FB4FF0AC
:10587000FF32FFF746FE0646024653480F460B46E8
:1058800006217844FFF7F7FE32463B46FFF7D3FB8D
:10589000CDE900014D4832463B4604217844FFF7EC
:1058A000EAFE32463B46FFF7C6FB00222B46FFF7D7
:1058B0001BFB834602913046394600F05FFA804672
:1058C00043480D46504517DCDDE900015A46029B6E
:1058D000FFF723FC42462B46FFF7ADFB42462B4623
:1058E000FFF702FB0122FFF70CFE304A304BFFF7B7
:1058F0009CFB304A304B4CE04FF0000A52460B46BE
:105900004046FFF7F1FACDE9031052462B46104608
:105910001946FFF790FB32463B46FFF789FBDDE96E
:105920000332FFF7FAFB06460F46DDE900015A464F
:10593000029BFFF7F2FB8346009101223046394675
:10594000FFF7DFFD194A1A4BFFF772FB06460F46B9
:10595000012240462946FFF7D4FD5A46009BFFF737
:105960006AFB32463B46FFF760FB07460E460122C4
:1059700050462946FFF7C5FD0E4DDFF858802A46F0
:105980004346FFF755FB3A463346FFF751FB2A469D
:105990004346FFF74DFB002CD8BF81F0004106B015
:1059A000BDE8F08D0000F03F0000F07F075C14338D
:1059B00026A6913C182D4454FB21F93F0000E03FFE
:1059C000B8050000CE0500004205000058050000A3
:1059D0003333EF3FFB21E93F2DE9F84F04460D46F5
:1059E00021F0004000917449814213DC73498842E0
:1059F00001DC08D13CB120462946BDE8F84F4FF004
:105A00000102FFF77EBD6E48002DCCBF6D496E4987
:105A1000BDE8F88F6D49814211DD6D498142D8BFE3
:105A20004FF0FF366DDD20462946FFF710FE0428B3
:105A300008BFFFF775FE20462946BDE8F88F654987
:105A4000654F25F00045814233DD6449814219DD0F
:105A5000002632464FF0804320462946FFF744FA9D
:105A600080468A46012220462946FFF74AFD002249
:105A70003B46FFF7DAFA42465346FFF74EFB044631
:105A80000D463EE001260022BA463B462046294606
:105A9000FFF72AFA80460F46002253462046294641
:105AA000FFF7C3FA42463B46FFF737FB04460D4675
:105AB00027E04B4981421BDDDFF8288102260022C6
:105AC000434620462946FFF7B6FA00223B46FFF739
:105AD0000BFA07468A460022434620462946FFF72E
