:020000040800F2
:10000000F00400201D250008012500080325000834
:10001000072500080B2500080F2500080000000038
:100020000000000000000000000000001325000890
:1000300015250008000000001725000819250008F4
:100040003725000837250008372500083725000820
:100050003725000837250008372500083725000810
:100060003725000837250008372500083725000800
:1000700037250008372500083725000837250008F0
:1000800037250008372500083725000837250008E0
:1000900037250008372500083725000837250008D0
:1000A00037250008372500083725000837250008C0
:1000B00037250008372500083725000837250008B0
:1000C00037250008372500083725000837250008A0
:1000D000372500088B04000837250008372500085D
:1000E000372500083725000837250008DFF80CD031
:1000F00002F044FB0048004741220008F0040020C1
:100100000CB50020019000906C48006840F48030ED
:100110006A49086000BF6948006800F40030009038
:100120000198401C0190009818B90198B0F5A06F93
:10013000F1D16248006800F4003010B10120009055
:1001400001E0002000900098012843D15C4800683D
:1001500040F010005A4908600846006820F003008B
:1001600008600846006840F0020008605348406894
:10017000524948600846406848600846406840F474
:10018000806048600846406820F47C10486008465B
:10019000406840F4E81048600846006840F080700D
:1001A000086000BF4548006800F000700028F9D0E2
:1001B0004248406820F003004049486008464068D3
:1001C00040F00200486000BF3C48406800F00C006E
:1001D0000828F9D10CBD10B5FFF792FF10BD10B57E
:1001E0003648006840F0010034490860084640681D
:1001F000344908403149486008460068324908409F
:100200002E4908600846006820F4802008600846EF
:10021000406820F4FE0048604FF41F008860FFF73C
:10022000DAFF4FF000602949086010BD10B50021C9
:1002300000200022214B5B6803F00C0121B104294E
:1002400006D0082928D107E0214B224C236027E063
:100250001F4B204C236023E0184B5B6803F47010A5
:10026000164B5B6803F48032022303EB904022B903
:10027000194B4343174C23600DE0104B5B6803F4AC
:10028000003323B1144B4343124C236003E0104B63
:100290004343104C236003E00D4B0E4C236000BF22
:1002A00000BF064B5B68C3F303130C4CE15C094BC6
:1002B0001B68CB40074C236010BD000000100240BB
:1002C000002002400000FFF8FFFFF6FE08ED00E00E
:1002D00000127A000000002000093D000400002008
:1002E00010B504466FF0040000F00BFCE11704EBBE
:1002F0005171C1F3C701144A11701046007800EB28
:100300004001C1EBC0104FF6FF7101EAC0000F4978
:10031000088010BD002109E0002201E0531C9AB2C0
:1003200040F6E4439A42F9DB4B1C99B28142F3DB7D
:100330007047002105E0002200E0521C0A2AFCD38D
:10034000491C8142F7D3704714000020160000209A
:1003500000B587B0FFF743FF0121042000F00CFF38
:100360000121082000F008FF0121880300F004FFAC
:100370000121084600F000FF6420FFF7CBFF4FF497
:100380000070ADF8180003208DF81A0018208DF8C1
:100390001B0006A94E4800F033FC4FF48060ADF816
:1003A000180004208DF81B0006A9494800F028FC1D
:1003B0006420FFF7AFFF4FF4C06000F053FB25202F
:1003C0008DF8140000208DF815008DF8160001201E
:1003D0008DF8170005A800F04AFB6420FFF79AFF8C
:1003E0004FF4E13001900020ADF80800ADF80A00AC
:1003F000ADF80C000C20ADF80E000020ADF8100098
:1004000001A9344800F05FFF0121324800F0E7FF06
:10041000012240F225512F4800F0EDFF40212D48E8
:1004200001F0C5F807B000BD70B504460D46E1B255
:10043000284801F041F800BF8021264801F0AAF8C1
:100440000028F9D0204670BD10B504462146214849
:1004500001F032F800BF80211E4801F09BF800280F
:10046000F9D010BD10B504460BE014F8011B194873
:1004700001F022F800BF8021164801F08BF8002817
:10048000F9D020780028F0D110BD10B540F22551E8
:10049000104801F095F8D0B1002240F225510D48E6
:1004A00000F0A9FF0B4801F00BF80446214609486B
:1004B00001F002F800BF8021064801F06BF8002827
:1004C000F9D0012240F22551024800F094FF10BDFE
:1004D000000801400038014008B50121382000F033
:1004E0004BFE0420ADF8000010208DF8030003201F
:1004F0008DF802006946184800F082FB1820ADF81C
:10050000000010208DF8030003208DF802006946DA
:10051000124800F075FB4FF48050ADF80000102039
:100520008DF8030003208DF8020069460C4800F0A6
:1005300067FB0421084800F010FC1021074800F078
:100540000CFC0821054800F008FC4FF480510448D9
:1005500000F003FC08BD000000140140000C014045
:100560000010014001B502E00098401E0090009884
:100570000028F9D108BD00B587B00121192000F08D
:10058000FBFD0121880300F004FE4FF46040ADF84C
:10059000040001208DF8060018208DF8070001A93D
:1005A000D94800F02DFB4FF48050ADF80400012035
:1005B0008DF8060010208DF8070001A9D24800F040
:1005C0001FFB8020ADF8040001208DF806001020EC
:1005D0008DF8070001A9CD4800F012FB4020ADF8CE
:1005E000040001208DF8060048208DF8070001A9BD
:1005F000C64800F005FB4FF48051C34800F0ADFB46
:100600000020ADF808004FF48270ADF80A00002019
:10061000ADF80C00ADF80E00ADF810004FF400700E
:10062000ADF812001020ADF814000020ADF816004F
:100630000720ADF8180002A9B54801F02BF80121F8
:10064000B34801F0CCF807B000BD10B5044600BFB8
:100650000221AF4801F047F90028F9D02146AC4803
:1006600001F0EEF800BF0121A94801F03CF9002893
:10067000F9D0A74801F0E6F8C0B210BD70B5054644
:100680000C468021A14800F06AFB4FF480519E483F
:1006900000F065FB2846FFF7D8FF06462046FFF727
:1006A000D4FF4FF48051984800F057FB304670BD9E
:1006B00070B504468021954800F051FB4FF48051FD
:1006C000914800F04CFB2046FFF7BFFFFF20FFF7EB
:1006D000BCFF05464FF480518B4800F03EFB284696
:1006E00070BD2DE9F04107460D461646802187482A
:1006F00000F035FB4FF48051834800F030FB384662
:10070000FFF7A3FF8046002405E0FF20FFF79DFFD1
:100710002855601CC4B2B442F7DB4FF480517A48CC
:1007200000F01BFB4046BDE8F0812DE9F041074693
:100730000C4615468021754800F011FB4FF480519E
:10074000714800F00CFB3846FFF77FFF804600261B
:1007500005E014F8010BFFF778FF701CC6B2AE423B
:10076000F7DB4FF48051684800F0F7FA4046BDE8E7
:10077000F08110B58021654800F0F1FA1322654937
:100780002A20FFF7D2FF01212120FFF777FF012167
:100790002220FFF773FF28212520FFF76FFF12218A
:1007A0003120FFF76BFF0F212620FFF767FF0F2196
:1007B0002020FFF763FF8021544800F0CEFA10BDDF
:1007C00010B58021514800F0CAFA20225249302049
:1007D000FFF7ABFF13224F492A20FFF7A6FF0121A5
:1007E0002120FFF74BFF01212220FFF747FF1A21AD
:1007F0002420FFF743FF28212520FFF73FFF0F218B
:100800002620FFF73BFF0E212020FFF737FF802136
:100810003E4800F0A2FA4FF6FF70FFF7A3FE10BDAE
:100820001FB53EA103C9CDE90201052202A930206E
:10083000FFF77BFF052269461020FFF752FF0024D7
:1008400006E01DF80400C22800D003E0601CC4B21A
:10085000052CF6DB00BF052C02D1012004B010BD31
:100860000020FBE770B505468021284800F077FAA4
:100870001F222946A020FFF758FF8021234800F0BF
:100880006CFA00BF4021214800F04DFA0028F9D150
:100890000720FFF70DFF044621462720FFF7EEFE55
:1008A000FF21E120FFF7EAFE04F0200008B120203C
:1008B00070BD0020FCE770B505468021134800F0AC
:1008C0004CFA00BF4021114800F02DFA0028F9D160
:1008D00080210E4800F043FA0720FFF7E9FE0446A6
:1008E00021462720FFF7CAFE04F0400050B1122233
:1008F00029466120FFF7F5FEFF21E220FFF7BEFE4B
:10090000402070BD0020FCE7000C014000100140B9
:10091000003800403800002018000020C2C2C2C2C7
:10092000C200000008B50121102000F025FC0120C4
:10093000ADF8000048208DF803006946014800F03A
:100940005FF908BD0008014000B591B001214FF4E6
:10095000017000F011FC0121084600F000FC0620A7
:10096000ADF82C0000208DF82F000BA9394800F0BD
:1009700047F900200C9001208DF834008DF83500E7
:100980004FF460200E9000200F9001208DF8400061
:100990000CA9314801F005F84FF4404000F050FB3D
:1009A0000623012202212C4801F093F8062302229B
:1009B0000121294801F08DF80121274801F028F88C
:1009C0000121254801F019F8234801F038F800BF4B
:1009D000214801F039F80028FAD11F4801F03EF80B
:1009E00000BF1D4801F03FF80028FAD11B4801F074
:1009F000D9F919484C300090194801900020029014
:100A0000012003900020049005904FF48070069020
:100A100080000790202008900002099000200A9092
:100A200069460E4801F060FA01210C4801F087FA8E
:100A30000121094801F021F811B000BD10B500BF37
:100A40000221054801F08AF90028F9D0024801F096
:100A5000A7F810BD00080140002401400800024032
:100A60006000002031490143314A1160704770B580
:100A7000002100230F22C47804B32D4C246804F411
:100A8000E064C4F5E064210AC1F10403CA4044787B
:100A900004FA03F18478144021430901254C0678B7
:100AA000A155047804F01F050124AC4005786D11B0
:100AB000AD0005F1E025C5F8004109E0047804F037
:100AC0001F050124AC401C4D0678761145F82640E0
:100AD00070BD1A4A0A400243154B1B1F1A6070472B
:100AE00039B1134A121D12680243114B1B1D1A60C3
:100AF00006E00F4A121D126882430D4B1B1D1A603F
:100B00007047042808D14FF0E021096941F0040141
:100B10004FF0E022116107E04FF0E021096921F078
:100B200004014FF0E0221161704700000000FA0557
:100B30000CED00E000E400E080E100E080FFFF1F3A
:100B400010B50446CC48844208D10121042000F0AD
:100B50002DFB0021042000F029FB46E0C748844219
:100B600008D10121082000F021FB0021082000F01D
:100B70001DFB3AE0C248844208D10121102000F058
:100B800015FB0021102000F011FB2EE0BD4884422F
:100B900008D10121202000F009FB0021202000F0D5
:100BA00005FB22E0B848844208D10121402000F032
:100BB000FDFA0021402000F0F9FA16E0B348844223
:100BC00008D10121802000F0F1FA0021802000F0FE
:100BD000EDFA0AE0AE48844207D10121801500F009
:100BE000E5FA0021A01500F0E1FA10BD10B50121D1
:100BF000084600F0DBFA0021012000F0D7FA10BD12
:100C00002DE9F041024600250026002000230024A3
:100C1000002791F803C00CF00F0591F803C00CF009
:100C2000100CBCF1000F03D091F802C04CEA05058E
:100C300091F800C0BCF1000F31D0146800202BE007
:100C40004FF0010C0CFA00F3B1F800C00CEA0306F7
:100C50009E4220D183004FF00F0C0CFA03F7BC43E7
:100C600005FA03FC4CEA040491F803C0BCF1280F18
:100C700006D14FF0010C0CFA00FCC2F814C00AE0D7
:100C800091F803C0BCF1480F05D14FF0010C0CFAEC
:100C900000FCC2F810C0401C0828D1D31460B1F881
:100CA00000C0BCF1FF0F34DD546800202EE000F1DD
:100CB000080C4FF0010808FA0CF3B1F800C00CEA78
:100CC00003069E4221D183004FF00F0C0CFA03F76C
:100CD000BC4305FA03FC4CEA040491F803C0BCF1E0
:100CE000280F05D100F1080C08FA0CF8C2F814809E
:100CF00091F803C0BCF1480F07D100F1080C4FF088
:100D0000010808FA0CF8C2F81080401C0828CED35D
:100D10005460BDE8F0814FF6FF71018002218170BF
:100D20000421C17070470246002093680B400BB14C
:100D3000012000E0002070470146886880B27047BB
:100D400002460020D3680B400BB1012000E00020D8
:100D500070470146C86880B27047016170474161C1
:100D600070470AB1016100E041617047C16070479E
:100D70004FF480320A4382618161826182698269B3
:100D8000704702460020434B18684FF680731840A6
:100D900040EA021008433F4B186070473E49C86163
:100DA0007047F0B50A46002300240021002500F01A
:100DB0000046B6F1004F02D1364EF16901E0354EE2
:100DC0007168C0F3034583B200F44016B6F5401FC6
:100DD00008D121F070612F4E766826F070662D4F95
:100DE0007E6012E000F48016B6F5801F06D103265F
:100DF00006FA05F4A14341F0706106E0460D3601A4
:100E000003FA06F6B14341F0706122B1460D360196
:100E100003FA06F6314300F00046B6F1004F02D166
:100E20001C4EF16101E01B4E7160F0BD30B5002237
:100E30008B071C0F0F2303FA04F2164B08338C1098
:100E400053F824309343134C08348D1044F8253064
:100E500023468C1053F824308C07240F00FA04F436
:100E600023430C4C08348D1044F8253030BD0A491A
:100E7000DC3108607047000000080140000C0140B0
:100E8000001001400014014000180140001C014006
:100E9000002001400000014000002042DF480068BF
:100EA00040F00100DD49086008464068DC49084020
:100EB000DA49486008460068DA490840D7490860BE
:100EC0000846006820F4802008600846406820F446
:100ED000FE0048604FF41F0088607047CF490968E2
:100EE00021F48031CD4A11601146096821F4802136
:100EF0001160B0F5803F03D0B0F5802F0ED106E031
:100F0000C649096841F48031C44A116007E0C34909
:100F1000096841F4A021C14A116000E000BF00BF90
:100F2000704710B501460022002300204A11012A13
:100F300002D1BA4C236806E0022A02D1B74C236AD8
:100F400001E0B64C636A01F01F02012494401C408A
:100F50000CB1012000E0002010BD38B50020009049
:100F60000024002500BF3120FFF7DBFF0546009875
:100F7000401C00900098B0F5A06F01D0002DF2D079
:100F80003120FFF7CEFF08B1012400E00024204605
:100F900038BD01460020A14A106820F0F80040EA60
:100FA000C10010607047A0490860704702460020E9
:100FB0009A4B586820F47C1042EA01031843974B7F
:100FC0005860704798490866704701460020934A68
:100FD000506820F003000843506070478F48406815
:100FE00000F00C007047014600208C4A506820F049
:100FF000F00008435060704701460020874A50685F
:1010000020F4E06008435060704701460020834AA6
:10101000506820F4605040EAC1005060704729B128
:101020007E4A527A02437D4B5A7204E07B4A527ADE
:1010300082437A4B5A7270477B49D83108607047B7
:1010400001460020754A506820F440400843506033
:1010500070470021714A20321170704A82F82010C6
:10106000012802D004280AD104E001216B4A203271
:10107000117005E00521694A2032117000E000BFBF
:1010800000BF70476949086070476449096A0143B5
:10109000624A11627047654944390860704730B54B
:1010A00000210022002400235C4D6D6805F00C0136
:1010B00021B1042905D0082923D105E05C4D056044
:1010C00022E05B4D05601FE0544D6D6805F4701221
:1010D000524D6D6805F48034022505EB92421CB92F
:1010E000544D554305600BE04C4D6D6805F40035DB
:1010F0001DB1504D5543056002E04D4D554305600F
:1011000002E04B4D056000BF00BF444D6D6805F027
:10111000F0010909484D6B5C0568DD4045603F4DB5
:101120006D6805F4E061090A434D6B5C4568DD407C
:1011300085603A4D6D6805F46051C90A3E4D6B5C9F
:101140004568DD40C560354D6D6805F44041890B4B
:101150003A4D6B5CC568B5FBF3F5056130BD29B14F
:101160002E4A526902432D4B5A6104E02B4A5269C0
:1011700082432A4B5A61704729B1284A9269024337
:10118000264B9A6104E0254A92698243234B9A6177
:10119000704729B1214AD2690243204BDA6104E049
:1011A0001E4AD26982431D4BDA61704729B11B4A3E
:1011B000D2680243194BDA6004E0184AD2688243CD
:1011C000164BDA60704729B1144A12690243134B77
:1011D0001A6104E0114A12698243104B1A61704788
:1011E00012494039086070470F49C86470470B497D
:1011F000C87170470948406A40F0807007494862EA
:10120000704701460020054A92680A400AB1012051
:1012100000E00020704701498872704700100240CA
:101220000000FFF8FFFFF6FE000042428004424249
:1012300000127A0000093D004B0000205B000020F6
:1012400010B50446FB48844209D101218803FFF709
:10125000ADFF00214FF48040FFF7A8FF32E0F648D1
:10126000844209D101214804FFF7ADFF00214FF46A
:101270000030FFF7A8FF25E0F048844209D10121A2
:101280008804FFF7A0FF00214FF48020FFF79BFFA9
:1012900018E0EB48844209D10121C804FFF793FF0D
:1012A00000214FF40020FFF78EFF0BE0E548844259
:1012B00008D101210805FFF786FF00214FF48010B7
:1012C000FFF781FF10BD2DE9F04786B005460E46B9
:1012D0000024A24600BFA1460027B08900B100BF8C
:1012E0002F462C8A4CF6FF700440F08804432C8271
:1012F000AC894EF6F3100440B088318908437189F7
:1013000008430443AC81AC8A4FF6FF400440B089E7
:101310000443AC8201A8FFF7C2FEC648874202D14F
:10132000DDF810A001E0DDF80CA0A88900F4004071
:1013300040B10AEBCA0000EB0A1031684900B0FB6B
:10134000F1F807E00AEBCA0000EB0A1031688900E7
:10135000B0FBF1F86420B8FBF0F00401200964212F
:1013600001FB1089A88900F4004040B1322000EB55
:10137000C900B0FBF1F000F00700044308E03220A0
:1013800000EB09106421B0FBF1F000F00F00044302
:101390002C8106B0BDE8F0874FF4165101600021A2
:1013A0008180C18001810C214181002181817047B0
:1013B00010B502460020108A4FF2FF0318400B8838
:1013C0004C8823438C882343CC88234318431082C2
:1013D00010BD0021018041808180C180704721B112
:1013E000828942F40052828104E082894DF6FF73C3
:1013F0001A4082817047F0B503460024002600257C
:10140000002040F66A17B94200D100BF1846C1F368
:10141000421401F01F06012707FA06F5012C01D13D
:101420000C3004E0022C01D1103000E014301AB16D
:1014300007682F43076002E00768AF430760F0BD0D
:101440001AB1838A0B43838202E0838A8B438382AF
:101450007047028A4FF6F0731A400282028A0A43EA
:101460000282704782894FF2FF731A40828182891B
:101470000A438281704721B1828942F0020282814F
:1014800004E082894FF6FD731A4082817047028A18
:101490004FF6DF731A400282028A0A4302827047C3
:1014A00021B1028A42F48042028204E0028A4BF6B1
:1014B000FF731A4002827047C1F3080282807047AE
:1014C00001468888C0F308007047818941F0010116
:1014D00081817047028BD2B20283028B42EA0122E1
:1014E00002837047028B02F47F420283028B0A431D
:1014F0000283704721B1828A42F02002828204E096
:10150000828A4FF6DF731A408282704721B1828A45
:1015100042F01002828204E0828A4FF6EF731A4092
:101520008282704721B1828A42F00802828204E0FE
:10153000828A4FF6F7731A408282704721B18289FE
:1015400042F40042828103E08289C2F30E0282816A
:10155000704721B1828A42F40062828204E0828A6A
:101560004FF2FF731A4082827047828A4FF6FB73F4
:101570001A408282828A0A438282704721B1828A1B
:1015800042F00202828204E0828A4FF6FD731A4022
:101590008282704702460020B1F5007F00D100BF73
:1015A00013880B400BB1012000E00020704701F4CC
:1015B0000072B2F5007F00D100BFCA4302807047BD
:1015C00070B50246002400230025002040F66A166C
:1015D000B14200D100BFC1F3421501F01F03012643
:1015E00006FA03F3012D02D19689334006E0022D5D
:1015F00002D1168A334001E0968A33400C1201264C
:1016000006FA04F41688344013B10CB1012000E04E
:10161000002070BD10B50022002340F66A14A142DC
:1016200000D100BF0A1201249440A3B2DC4304801D
:1016300010BD000000380140004400400048004058
:10164000004C00400050004010B50446BE488442A3
:1016500008D101218014FFF7A9FD0021A014FFF794
:10166000A5FD16E0B948844208D101210014FFF716
:10167000AAFD00212014FFF7A6FD0AE0B448844229
:1016800007D10121C013FFF79EFD0021E013FFF7F2
:101690009AFD10BD10B50022028802F441520B8859
:1016A0004C8823438C882343CC8823430C892343D1
:1016B0004C8923438C892343CC8923431A430280DA
:1016C000838B4FF2FF74234083830B8A038210BD08
:1016D0002DE9F04F85B005460C464FF00009022772
:1016E0004FF000084FF0010B0026B246A88B4FF2D6
:1016F00040010840A88302202884B5F81C90A06807
:10170000022801D100BF38E0A08810B94FF0010BCA
:1017100001E04FF0020B8D48854200D100E000BF90
:101720006846FFF7BCFCDDF800A0E088B0F5007F5C
:101730000AD14FEA1A2000EB80004000A168B0FBFC
:10174000F1F0401D86B20BE04FEA4B10BAFBF0F00F
:1017500000EB80004000A168B0FBF1F0401D86B2B4
:101760000A20B6FBF0F606F00108A6EB0800C0F36D
:101770004F074FF6FF7000EA0828022F01DBFF2F0A
:1017800002DD02274FF00008E08840EA08003843F5
:101790002884A088A18908436188084321880843D8
:1017A00040F4006040EA0909A5F81C9005B0BDE8C6
:1017B000F08F0021018041808180C18001814181C1
:1017C0008181C18107210182704700210180418010
:1017D0008180C1800221816000218181704721B117
:1017E000028842F04002028004E002884FF6BF7394
:1017F0001A400280704721B1828B42F4806282835A
:1018000004E0828B4FF6FF331A408283704730B575
:10181000002400230C110125A540ABB21AB1858824
:101820001D43858002E085889D43858030BD1AB1C7
:1018300083880B43838002E083888B4383807047D7
:10184000818170470146888970474FF6FF62914257
:1018500004D0028842F48072028004E002884FF6CD
:10186000FF631A400280704721B1828842F004026F
:10187000828004E082884FF6FB731A4082807047B2
:1018800002884FF2FF731A40028002880A430280E6
:101890007047018841F480510180704721B102886E
:1018A00042F40052028004E002884DF6FF731A40B1
:1018B0000280704702460020012901D0108B00E011
:1018C000908A70470146088A7047B1F5804F04D16D
:1018D000028842F48042028004E002884BF6FF73E3
:1018E0001A40028070470246002013890B400BB15A
:1018F000012000E000207047CA4302817047F0B524
:101900000246002000240023002501F00F070126D5
:10191000BE40B4B20B1101269E40B3B2968806EACF
:1019200003051689264016B10DB1012000E0002004
:10193000F0BD10B5002201F00F040123A3409AB2BC
:10194000D343038110BD0000003001400038004047
:10195000003C004010B50446FA48844208D10121F9
:101960004015FFF723FC00216015FFF71FFC17E06F
:10197000F548844208D101210015FFF717FC00212A
:101980002015FFF713FC0BE0F048844208D1012139
:10199000C803FFF70BFC00214FF40040FFF706FCE3
:1019A00010BD30B50246002000235068E84C2040AE
:1019B0000D790C6844EA0524204350609068E54C9A
:1019C0002040D1E902542C434D7944EA4504204398
:1019D0009060D06A20F470000C7C641EE4B2234353
:1019E00040EA0350D06230BD0021016001714171B5
:1019F0008160C16001210174704721B1826842F0A9
:101A00000102826003E0826822F001028260704776
:101A100021B1826842F48072826003E0826822F41D
:101A200080728260704710B50023CBB21AB144684F
:101A30001C43446002E044689C43446010BD8168DC
:101A400041F0080181607047014600208A6802F079
:101A500008020AB1012000E000207047816841F0CF
:101A6000040181607047014600208A6802F0040288
:101A70000AB1012000E00020704721B1826842F4E1
:101A8000A002826003E0826822F4A00282607047B4
:101A9000014600208A6802F480020AB1012000E0B9
:101AA0000020704710B50A4600210023416821F448
:101AB0006041531E41EA4331416010BD21B142688B
:101AC00042F40062426003E0426822F40062426035
:101AD0007047F0B504460D4600200021092D11DDA8
:101AE000E068A5F10A0606EB4607072606FA07F1A5
:101AF0008843A5F10A0606EB460603FA06F10843F9
:101B0000E0600CE0206905EB4507072606FA07F1BF
:101B1000884305EB450603FA06F108432061072ACE
:101B20000FDA606B561E06EB86071F2606FA07F1D2
:101B30008843561E06EB860605FA06F108436063E5
:101B400022E00D2A0FDA206BD61F06EB86071F2630
:101B500006FA07F18843D61F06EB860605FA06F15A
:101B60000843206310E0E06AA2F10D0606EB860749
:101B70001F2606FA07F18843A2F10D0606EB86063A
:101B800005FA06F10843E062F0BD21B1826842F433
:101B90008012826003E0826822F4801282607047C3
:101BA0000146C86C80B2704766484C300068704788
:101BB00021B1426842F48062426003E0426822F44C
:101BC00080624260704721B1426842F480524260B4
:101BD00003E0426822F48052426070470A460021C6
:101BE000816821F4E04111438160704721B182682E
:101BF00042F40042826003E0826822F40042826084
:101C0000704721B1826842F40212826003E0826868
:101C100022F4021282607047014600208A6802F4B2
:101C200000120AB1012000E000207047F0B5044620
:101C30001546002000220026092911DDE068A1F1E7
:101C40000A0707EB470C072707FA0CF29043A1F1AC
:101C50000A0707EB470703FA07F21043E0600CE0BE
:101C6000206901EB410C072707FA0CF2904301EBC6
:101C7000410703FA07F210432061A06BC0F301563D
:101C8000EF1C06F1010CA7EB0C0707EB870C1F27D5
:101C900007FA0CF29043EF1C06F1010CA7EB0C07BE
:101CA00007EB870701FA07F21043A063F0BD10B5F8
:101CB0000A4600210023816B21F44011531E41EAA2
:101CC0000351816310BD08B5002300930090009B71
:101CD0000B440093009B1A6008BD08B50246002023
:101CE0000090009201F12800009B18440090009899
:101CF000006880B208BD0A4600214168164B1940B1
:101D00001143416070474162826270470A46002178
:101D1000416821F01F0111434160704740B10949FA
:101D20000831096841F40001064A0832116007E0F1
:101D300004490831096821F40001024A083211609F
:101D4000704700000024014000280140003C014091
:101D5000FFFEF0FFFDF7F1FFFFFD3FFF0246002011
:101D600013680B400BB1012000E000207047CA430C
:101D70000260704770B502460020002300240B1259
:101D80005568CEB205EA060415681D4015B10CB1C0
:101D9000012000E0002070BD00220A12D34303603E
:101DA0007047000001684FF6FE721140016000218B
:101DB000016041608160C1608D49884208D18C49D1
:101DC0000839496841F00F01894A083A51608AE0B0
:101DD00087491431884208D185490839496841F05A
:101DE000F001834A083A51607DE0814928318842F8
:101DF00008D17F490839496841F470617C4A083A42
:101E0000516070E07A493C31884208D178490839FC
:101E1000496841F47041764A083A516063E0744978
:101E20005031884208D172490839496841F470211B
:101E30006F4A083A516056E06D496431884208D1D2
:101E40006B490839496841F47001694A083A5160A0
:101E500049E067497831884208D1654908394968BD
:101E600041F07061624A083A51603CE06149884241
:101E700006D1011F096841F00F01021F116032E015
:101E80005C491431884208D15A49091F096841F058
:101E9000F001584A121F116025E056492831884246
:101EA00008D15449091F096841F47061514A121F51
:101EB000116018E04F493C31884208D14D49091F53
:101EC000096841F470414B4A121F11600BE0494907
:101ED0005031884207D14749091F096841F47021F0
:101EE000444A121F1160704710B50022026847F67D
:101EF000F0739A430C6A8B6823430C6923434C6943
:101F000023438C692343CC6923434C6A23438C6A63
:101F100023431A430260CB6843600B6883604B68BD
:101F2000C36010BD0021016041608160C16001613A
:101F300041618161C161016241628162704721B189
:101F4000026842F00102026004E002684FF6FE738C
:101F50001A40026070471AB103680B43036002E045
:101F600003688B43036070474160704701464868CF
:101F700080B2704701460020002201F080531BB15F
:101F80001C4B083B1A6802E0194B083B1A6802EA2E
:101F900001030BB1012000E00020704700F08051E8
:101FA00019B11449091F086002E011490839486055
:101FB000704701460020002201F080531BB10D4BF9
:101FC000083B1A6802E00A4B083B1A6802EA010360
:101FD0000BB1012000E00020704700F0805119B1E2
:101FE0000449091F086002E0014908394860704748
:101FF000080002400804024038B50446FD48FE4986
:10200000086000204860FD488860FA48FC49086084
:1020100000204860F94888600020FA49086048605C
:102020004FF000408860F848F8490860F848886038
:10203000F548F8490860F64888600020F6490860CD
:102040008860F64908701520487088700020C870B4
:10205000E9490868F24900F0CBFA054600F03DFB7B
:1020600000B200909DF80100E0709DF80000207122
:10207000E1494868EA4900F0BBFA054600F02DFB4B
:1020800000B200909DF8010060719DF80000A07101
:10209000D9498868E24900F0ABFA054600F01DFB1B
:1020A00000B200909DF80100E0719DF800002072E0
:1020B000D3490868DA4900F09BFA054600F00DFBA9
:1020C00000B200909DF8010060729DF80000A072BF
:1020D000CB494868D24900F08BFA054600F0FDFA7A
:1020E00000B200909DF80100E0729DF8000020739E
:1020F000C3498868CA4900F07BFA054600F0EDFA4A
:1021000000B200909DF8010060739DF80000A0737C
:10211000BC490868C24900F06BFA054600F0DDFAD8
:1021200000B200909DF80100E0739DF8000020745B
:10213000B4494868BA4900F05BFA054600F0CDFAA8
:1021400000B200909DF8010060749DF80000A0743A
:10215000AC498868B24900F04BFA054600F0BDFA78
:1021600000B200909DF80100E0749DF80000207519
:10217000AA4800786075A9484078A075A74880787B
:10218000E075A648C0782076A0490868A44900F008
:102190002FFA054600F0A1FA00B200909DF8000069
:1021A00060769A4988689E4900F022FA054600F058
:1021B00094FA00B200909DF80000A0769549086856
:1021C000974900F015FA054600F087FA00B2009032
:1021D0009DF80000E0768D498868914900F008FA82
:1021E000054600F07AFA00B200909DF800002077D2
:1021F000894908688A4900F0FBF9054600F06DFA44
:1022000000B200909DF80000607783498868844997
:1022100000F0EEF9054600F060FA00B200909DF87B
:102220000000A07738BD002107E0002200E0521C2A
:1022300042F210739A42FAD3491C8142F5D3704797
:10224000012078490870FEF783F8FEF76BFBFEF774
:102250007BFB01217448FEF7A4FDFEF73DF9FEF774
:102260008AF9FEF7DDFA71490870084600780128FE
:1022700001D000BFFEE75DE04FF480516C48FEF7EF
:102280006EFD01216B48FEF74EFD30BB0A20FFF7C3
:10229000CAFF01216748FEF746FDF0B9012D05D1BF
:1022A0004FF49670FFF7BFFF002516E00421624847
:1022B000FEF746FD0446012C07D104215E48FEF7D7
:1022C0004EFD05205D49087006E004215A48FEF7DE
:1022D00044FD00205949087001255948008800F044
:1022E000F7F98146574900F0B5F98046564900F0A4
:1022F0007FF90746554900F023F9064600F0EDF94D
:10230000534908600846006840F25461884202DD83
:1023100008464F4908604E484078484948704C4844
:10232000007888700846FFF767FEFEF749FA4348D1
:10233000FEF798FAA0E72DE9F0418AB04548007809
:10234000AA2855D10024002500274FF00008AA2212
:102350002146641C05A842542146641C42540122B3
:102360002146641C425406222146641C4254002625
:1023700008E03849B01C0A5C2046611CCCB205A9B3
:102380000A54761C062EF4DB0020334908600AE06C
:1023900005A831490968405C3844C7B22E48006836
:1023A000401C2D4908602C480068A042F0DB204604
:1023B000611CCCB205A90F540020274908600AE02F
:1023C00005A9254A1268885CFEF73EF82248006895
:1023D000401C2149086020480068A042F0DBAA2286
:1023E0002846691CCDB20DF800202846691C35E04E
:1023F0007EE000000000C441A80000209A99D94066
:10240000B4000020C00000208FC2F53CCC000020AA
:102410006F12833AD8000020E40000206D000020F5
:1024200000007A446C0000200002300062000020AE
:102430000010014000080140001401407400002019
:102440006000002000A04D450000AF44000048445B
:10245000680000209400002064000020CDB20DF838
:10246000002006222846691CCDB20DF80020082263
:102470002846691CCDB20DF80020002609E01E494F
:1024800006F108000A5C2846691CCDB20DF8002050
:10249000761C082EF3DB0020184908600BE0174972
:1024A00009681DF80100404400F0FF081348006867
:1024B000401C1249086011480068A842EFDB28461A
:1024C000691CCDB20DF8008000200C4908600AE0BC
:1024D0000A4A12681DF80200FDF7B6FF07480068B7
:1024E000401C0649086005480068A842F0DB00BFB0
:1024F0000AB0BDE8F08100009400002064000020D4
:10250000704700BFFEE700BFFEE700BFFEE700BF69
:10251000FEE77047704770477047000006488047E5
:1025200006480047FEE7FEE7FEE7FEE7FEE7FEE7B8
:10253000FEE7FEE7FEE7FEE7DF010008ED0000082A
:10254000F0B480EA0102D40F4200B2EB410F02D294
:102550000246084611464A0042D0C30DDDB2C1F31F
:10256000C752AD1A202D35DAC1F3160141F400022D
:1025700004B15242C5F1200602FA06F12A41104484
:10258000B3EBD05F23D0C4B1012DA0EBC35009DC65
:10259000F0BC4FF0004202EAC352DBB200F500008B
:1025A00000F0BDB8400000F1807000EBC350A0F116
:1025B000807040EAD170490009E0490841EAC071E1
:1025C000A0EBC35000F50000400800EBC350F0BC86
:1025D00000F09CB86142012202EB4101001BF6E7CA
:1025E000F0BC704781F00041AAE780F00040A7E707
:1025F00080EA010210B502F00043400022D04A00F8
:102600001FD0010E01EB1261C0F35600C2F3560257
:1026100040F4000042F40002A0FB022000047F39D5
:10262000140400D0401C50EA124001D44000491E5E
:10263000C2B20C0604EBD010401C4008802A02D025
:1026400003E0002010BD20F00100002900DA002086
:10265000184310BD30B480EA010202F0004530F0AA
:10266000004221F0004013D090B1C30DD40DC2F34D
:102670001601C0F31600E41A41F4000140F4000210
:102680007D34914201D3641C00E04900002C02DA41
:1026900030BC002070474FF400000023914201D36A
:1026A000891A034340084FEA4101F7D151B19142E1
:1026B00002D14FF0004105E002D24FF0010101E0EC
:1026C0006FF0010103EBC450284430BC00F01EB889
:1026D00096230022114600F022B800F0004220F0BC
:1026E0000040C10DC0F3160040F400007F2901DA5C
:1026F00000207047962903DCC1F19601C84001E033
:1027000096398840002AF4D0404270470029A8BF7B
:102710007047401C490008BF20F00100704710B40A
:10272000B0FA80FC00FA0CF050EA010404BF10BCBF
:10273000704749B1CCF1200421FA04F411FA0CF1EC
:1027400018BF012121430843A3EB0C01CB1D4FEA25
:1027500000614FEA102042BF002010BC704700EB20
:10276000C35010440029A4BF10BC7047401C49004E
:1027700008BF20F0010010BC70470000064C074D58
:1027800006E0E06840F0010394E807009847103441
:10279000AC42F6D3FDF7AEFCC0270008E0270008E6
:1027A00002E008C8121F08C1002AFAD1704770471A
:1027B000002001E001C1121F002AFBD17047000078
:1027C000E02700080000002074000000A027000897
:1027D00054280008740000207C040000B027000882
:1027E00000A24A04000000000000000001020304EF
:1027F0000607080900000000344310100100000023
:1028000000000000000000000000000000000000C8
:102810000000000000000000344310100100000020
:1028200000000000000000000000000000000001A7
:102830000203040102030406070809020406080053
:102840000000000000000000000000000000000088
:042850000000000084
:040000050800251DAD
:00000001FF
